:100000000C9462000C948A000C948A000C9469058C
:100010000C948A000C948A000C948A000C948A0038
:100020000C948A000C948A000C948A000C948A0028
:100030000C948A000C948A000C948A000C948A0018
:100040000C941F050C948A000C94ED040C94C704C6
:100050000C948A000C948A000C948A000C948A00F8
:100060000C948A000C948A000000000023002600F3
:10007000290000000000240027002A0000000000E2
:10008000250028002B0004040404040404040202D4
:100090000202020203030303030301020408102007
:1000A0004080010204081020010204081020000012
:1000B0000008000201000003040700000000000027
:1000C0000000C30511241FBECFEFD8E0DEBFCDBFB7
:1000D00022E0A8E4B1E001C01D92AC37B207E1F71D
:1000E00011E0A0E0B1E0EEE0F5E102C005900D9274
:1000F000A834B107D9F710E0C2E6D0E004C02197D8
:10010000FE010E947A0AC136D107C9F70E94200673
:100110000C94850A0C940000EFE7F1E0A089B18906
:1001200082E08C93A485B5851C92A685B7858FEC5B
:100130008C93108EA489B58986E08C93A289B389AB
:100140008C9180618C93A289B3898C9188608C9307
:10015000A289B3898C9180688C930288F389E02D01
:1001600080818F7D80830895CF92DF92EF92FF92FE
:100170000F931F93CF93DF936C017A018B01C0E043
:10018000D0E0CE15DF0589F0D8016D918D01D60143
:10019000ED91FC910190F081E02DC6010995892B2C
:1001A00011F47E0102C02196ECCFC701DF91CF91FF
:1001B0001F910F91FF90EF90DF90CF900895FC0179
:1001C000918D828D981761F0828DDF01A80FB11D8E
:1001D0005D968C91928D9F5F9F73928F90E00895B2
:1001E0008FEF9FEF0895FC01918D828D981731F06C
:1001F000828DE80FF11D858D90E008958FEF9FEFC0
:100200000895FC01918D228D892F90E0805C9F4F95
:10021000821B91098F73992708958FE791E00E94BF
:10022000010121E0892B09F420E0822F0895FC01CF
:10023000848DDF01A80FB11DA35ABF4F2C91848D6F
:1002400090E001968F739927848FA689B7892C93A4
:10025000A089B1898C9180648C93938D848D98133F
:1002600006C00288F389E02D80818F7D8083089508
:10027000EF92FF920F931F93CF93DF93EC0181E0F6
:10028000888F9B8D8C8D981305C0E889F9898081B2
:1002900085FD24C0F62E0B8D10E00F5F1F4F0F73EE
:1002A0001127E02E8C8DE8120CC00FB607FCFACF98
:1002B000E889F989808185FFF5CFCE010E94170179
:1002C000F1CF8B8DFE01E80FF11DE35AFF4FF08255
:1002D0000B8FEA89FB898081806207C0EE89FF89E4
:1002E0006083E889F98980818064808381E090E07F
:1002F000DF91CF911F910F91FF90EF900895CF93D1
:10030000DF93EC01888D8823C9F0EA89FB8980811D
:1003100085FD05C0A889B9898C9186FD0FC00FB6EF
:1003200007FCF5CF808185FFF2CFA889B9898C9130
:1003300085FFEDCFCE010E941701E7CFDF91CF916E
:10034000089580E090E0892B29F00E940D01811131
:100350000C9400000895833081F028F4813099F0E6
:100360008230A1F008958730A9F08830B9F0843048
:10037000D1F4809180008F7D03C0809180008F77C1
:1003800080938000089584B58F7702C084B58F7DF7
:1003900084BD08958091B0008F7703C08091B00034
:1003A0008F7D8093B00008951F93CF93DF93282F04
:1003B00030E0F901E255FF4F8491F901E656FF4F15
:1003C000D491F901EA57FF4FC491CC23C9F0162FFD
:1003D00081110E94AB01EC2FF0E0EE0FFF1FE458FB
:1003E000FF4FA591B4918FB7F894111105C09C915E
:1003F000ED2FE095E92302C0EC91ED2BEC938FBF3C
:10040000DF91CF911F910895CF93DF9390E0FC018E
:10041000E656FF4F2491FC01EA57FF4F8491882351
:1004200061F190E0880F991FFC01EE58FF4FC591D4
:10043000D491FC01E458FF4FA591B491611109C01A
:100440009FB7F8948881209582238883EC912E238E
:100450000BC0623061F49FB7F8943881822F809589
:1004600083238883EC912E2B2C939FBF06C08FB7DC
:10047000F894E8812E2B28838FBFDF91CF910895C8
:100480008E3008F08E508770806480937C0080915D
:100490007A00806480937A0080917A0086FDFCCF98
:1004A000809178002091790090E0922B08953FB7D9
:1004B000F89480914D0190914E01A0914F01B0911F
:1004C000500126B5A89B05C02F3F19F00196A11D2C
:1004D000B11D3FBFBA2FA92F982F8827820F911DDA
:1004E000A11DB11DBC01CD0142E0660F771F881F21
:1004F000991F4A95D1F708958F929F92AF92BF921C
:10050000CF92DF92EF92FF920E9457024B015C0163
:1005100084EFC82EDD24D394E12CF12C0E945702E5
:10052000DC01CB0188199909AA09BB09883E9340CF
:10053000A105B10558F021E0C21AD108E108F1087F
:1005400088EE880E83E0981EA11CB11CC114D10452
:10055000E104F10419F7FF90EF90DF90CF90BF9086
:10056000AF909F908F9008952FB7F89460914901B4
:1005700070914A0180914B0190914C012FBF0895D9
:10058000CF93DF93EC0160E08E810E94D40161E0A3
:100590008E810E94D40160E08E810E94D4018BE89C
:1005A00091E00197F1F7DF91CF910895CF92DF921B
:1005B000EF92FF920F931F93CF93DF937C016C0117
:1005C00087E0C80ED11CC0E0D0E0062F10E0B801D3
:1005D0000C2E02C0759567950A94E2F76170F601DA
:1005E00081916F010E94D4012196C430D10579F721
:1005F000C701DF91CF911F910F91FF90EF90DF9096
:10060000CF900C94C002CF92DF92EF92FF920F93A3
:100610001F93CF93DF93EC01F62E642F8C810E9401
:10062000D4018D818F3F19F060E00E94D4018F8545
:100630000F2D10E084FF25C06E0187E0C80ED11C8D
:10064000E12CF12CB8010E2C02C0759567950A9427
:10065000E2F76170F60181916F010E94D401FFEF12
:10066000EF1AFF0A88E0E816F10461F7CE01DF9186
:10067000CF911F910F91FF90EF90DF90CF900C944E
:10068000C002B80184E0759567958A95E1F7CE01BF
:100690000E94D6026F2DCE01DF91CF911F910F9155
:1006A000FF90EF90DF90CF900C94D60241E00E9433
:1006B000030381E090E0089540E00C940303EF927F
:1006C000FF920F931F93CF93DF93EC01623018F0EA
:1006D0008F8588608F876B8B1C8A80E48D8B80E18F
:1006E0008E8B80E58F8B61E08C810E9404028D816E
:1006F0008F3F19F061E00E94040261E08E810E9448
:1007000004027E0187E0E80EF11C00E010E08F8516
:1007100084FD03C084E090E002C088E090E0081708
:1007200019074CF461E0F70181917F010E940402F6
:100730000F5F1F4FECCF8BE39DE00197F1F760E077
:100740008C810E94D40160E08E810E94D4018D8151
:100750008F3F19F060E00E94D4016F8564FD1DC0D9
:1007600063E0CE010E94D6020BE416E4C8010197B3
:10077000F1F763E0CE010E94D602C8010197F1F7BC
:1007800063E0CE010E94D60283E592E00197F1F783
:1007900062E0CE010E94D60216C06062CE010E94C5
:1007A0005C038BE496E40197F1F76F856062CE01FC
:1007B0000E945C0383E592E00197F1F76F85606228
:1007C000CE010E945C036F856062CE010E945C03D3
:1007D00084E0888B6CE0CE010E945C0361E0CE0176
:1007E0000E945C038BE39FE10197F1F782E0898B24
:1007F00066E0CE01DF91CF911F910F91FF90EF90B6
:100800000C945C03643008F063E090917702691700
:1008100010F06FEF690FE62FF0E0EC59FD4F94896F
:10082000682F690F606884E692E00C945C030E9474
:10083000800A6115710579F0FB0101900020E9F74C
:100840003197AF01461B570BDC01ED91FC91028003
:10085000F381E02D099480E090E008958F929F92BB
:10086000AF92BF92CF92DF92EF92FF920F931F93BE
:10087000CF93DF93CDB7DEB7A1970FB6F894DEBF65
:100880000FBECDBF6B017C0197FF33C0E0916402C6
:10089000F09165020190F081E02D6DE284E692E036
:1008A00009958C0122273327A9012C193D094E09EE
:1008B0005F0919A2CE0181967C019AE0892E912CC4
:1008C000A12CB12CCA01B901A50194010E94180AFA
:1008D000605DF70162937F012115310541055105E6
:1008E00089F7BF0184E692E00E941904800F911FEE
:1008F0001FC09B01AC0119A28E010F5D1F4F8AE042
:10090000C82ED12CE12CF12CCA01B901A701960106
:100910000E94180A605DF80162938F01211531056C
:100920004105510589F7BF0184E692E00E94190450
:10093000A1960FB6F894DEBF0FBECDBFDF91CF9169
:100940001F910F91FF90EF90DF90CF90BF90AF90ED
:100950009F908F9008950C941904CF93DF93EC012E
:100960008A3091051CF46CE171E005C08436910574
:1009700034F46DE171E084E692E00E94AB04BE01C4
:10098000DD0F880B990BDF91CF910C942E041F92F1
:100990000F920FB60F9211242F933F934F935F93B3
:1009A0006F937F938F939F93AF93BF93EF93FF9337
:1009B0008FE791E00E941701FF91EF91BF91AF91F6
:1009C0009F918F917F916F915F914F913F912F9167
:1009D0000F900FBE0F901F9018951F920F920FB699
:1009E0000F9211242F938F939F93EF93FF93E09196
:1009F0008F01F09190018081E0919501F091960135
:100A000082FD12C09081809198018F5F8F73209139
:100A10009901821751F0E0919801F0E0E158FE4F02
:100A2000958F8093980101C08081FF91EF919F91F4
:100A30008F912F910F900FBE0F901F9018951F92BE
:100A40000F920FB60F9211242F933F938F939F9382
:100A5000AF93BF938091490190914A01A0914B01BE
:100A6000B0914C013091480123E0230F2D3720F441
:100A70000196A11DB11D05C026E8230F0296A11DF8
:100A8000B11D209348018093490190934A01A0939E
:100A90004B01B0934C0180914D0190914E01A0917A
:100AA0004F01B09150010196A11DB11D80934D01E0
:100AB00090934E01A0934F01B0935001BF91AF911D
:100AC0009F918F913F912F910F900FBE0F901F908C
:100AD00018951F920F920FB60F9211242F933F93E8
:100AE0004F935F936F937F938F939F93AF93BF9336
:100AF000CF93DF93EF93FF93EAEBF0E08491E6EA84
:100B0000F0E0D491E2E9F0E0C491CC2349F1811105
:100B10000E94AB01EC2FF0E0EE0FFF1FE859FF4FF2
:100B2000A591B491EC91ED23D9F080917D01909144
:100B30007E01892BA9F481E090E090937E0180935F
:100B40007D0120917B0130917C01232B29F490932E
:100B50007C0180937B0104C010927C0110927B0188
:100B6000FF91EF91DF91CF91BF91AF919F918F91C5
:100B70007F916F915F914F913F912F910F900FBE99
:100B80000F901F901895EFE7F1E01382128288EE24
:100B900093E0A0E0B0E084839583A683B78388E0E8
:100BA00091E09183808385EC90E09587848784EC45
:100BB00090E09787868780EC90E0918B808B81EC2A
:100BC00090E0938B828B82EC90E0958B848B86EC0B
:100BD00090E0978B868B118E128E138E148EECE123
:100BE000F2E016821782108611861286138614860A
:100BF000158616861786108A118A128A138A148A15
:100C0000158AE4E6F2E01382128288E191E0918392
:100C1000808382E084838FEF858383E0868381E114
:100C2000878382E1808783E181878DE082871386D5
:100C3000148615861686178661E0CF010C945F0333
:100C4000789484B5826084BD84B5816084BD85B5A7
:100C5000826085BD85B5816085BD80916E008160B3
:100C600080936E0010928100809181008260809359
:100C7000810080918100816080938100809180005B
:100C80008160809380008091B10084608093B10086
:100C90008091B00081608093B00080917A00846080
:100CA00080937A0080917A00826080937A008091AC
:100CB0007A00816080937A0080917A0080688093C6
:100CC0007A001092C100109260021092610210929C
:100CD00062021092630210921E0210921F02109282
:100CE0002002109221020E94B4026B017C014B0190
:100CF0005C0128EB820E2BE0921EA11CB11C0E940D
:100D0000B4026C157D058E059F0528F086169706A2
:100D1000A806B906A0F78FE791E090935F02809351
:100D20005E020E948C000E94B40260931E027093C7
:100D30001F0280932002909321026FE171E0809165
:100D40005E0290915F020E94AB040E94B4026B01AC
:100D50007C014B015C016AE0860E911CA11CB11C58
:100D60000E94B4026C157D058E059F0528F086163D
:100D70009706A806B906A0F781E0809332020E9488
:100D80008C0062E084E692E00E945F0360E080E015
:100D90000E94020461E371E084E692E00E94AB04E9
:100DA0000E947C0261E084E00E94040261E085E030
:100DB0000E94040261E086E00E94040261E087E094
:100DC0000E94040261E088E00E94040261E089E080
:100DD0000E94040261E08AE00E94040261E08BE06C
:100DE0000E94040260E08CE00E940402809168008E
:100DF00081608093680080916B00806180936B00BC
:100E00000E94570260937701709378018093790173
:100E100090937A010E945702DC01CB010A96A11D32
:100E2000B11D8093730190937401A0937501B093E9
:100E300076010E94B4026093510170935201809335
:100E400053019093540181E090E090935E01809370
:100E50005D0190935C0180935B0183E0E82EF12CAF
:100E600090E7C92E97E1D92E25E5A22EB12C02E0FC
:100E700010E0C1E0D0E038EB232E3BE0332E809130
:100E80007D0190917E01019731F40E947C021092C5
:100E90007E0110927D018FE00E94400290936C01D0
:100EA00080936B018EE00E94400290936E018093CC
:100EB0006D0180E10E9440029093700180936F0168
:100EC00085E10E9440024C019093560180935501A8
:100ED0000E94B40240905101509052016090530121
:100EE0007090540124EF420E21E0521E611C711CCF
:100EF000641575058605970508F45FC00E94B40265
:100F00006093510170935201809353019093540167
:100F100060E08CE00E94020424EF31E0D4010E94E2
:100F2000730A20E034E040E050E00E94540AA3E05D
:100F3000B0E00E943A0A24E630E040E050E00E942F
:100F4000540A2B013C01CA01B9010E942E046DE331
:100F500071E084E692E00E94AB04C301B2010E94FA
:100F60002E0461E081E00E9402046FE371E084E6F8
:100F700092E00E94AB0480916B0190916C010E9401
:100F8000AD0461E471E084E692E00E94AB048091DC
:100F90006D0190916E010E94AD0464E471E084E6FD
:100FA00092E00E94AB0480916F01909170010E94C9
:100FB000AD0461E08FE00E94020480917B0190917A
:100FC0007C01019709F035C10E945702209102016E
:100FD000309103012901330F6608770820917701CA
:100FE000309178014091790150917A01420E531E5F
:100FF000641E751E641575058605970508F47EC088
:101000000E94570260937701709378018093790171
:1010100090937A0180916101909162012091650124
:10102000309166018217930754F08091710190917D
:1010300072018E7F90937201809371015FC001965F
:10104000909362018093610120915B0130915C017A
:1010500080915701909158012130310551F483302E
:10106000910529F410925801109257010EC0019673
:1010700008C0009729F4F0925801E092570105C08A
:101080000197909358018093570180915701909157
:1010900058018130910511F144F4892B79F561E013
:1010A00084E00E94D40160E01EC08230910541F0CE
:1010B000039721F561E084E00E94D40160E005C05F
:1010C00060E084E00E94D40161E085E00E94D401E8
:1010D00060E086E00E94D40161E00DC060E084E041
:1010E0000E94D40161E085E00E94D40161E086E0C5
:1010F0000E94D40160E087E00E94D4010E94570260
:1011000020910001309101012901330F6608770811
:1011100020917301309174014091750150917601D5
:10112000420E531E641E751E6415750586059705CF
:1011300008F49FC00E94570260937301709374017A
:10114000809375019093760180915F019091600189
:1011500020916301309164018217930754F08091CC
:101160007101909172018D7F909372018093710152
:1011700080C001969093600180935F0120915D0192
:1011800030915E018091590190915A0121303105D1
:1011900051F48330910529F410925A0110925901AB
:1011A0000EC0019608C0009729F4F0925A01E0920F
:1011B000590105C0019790935A018093590180917C
:1011C000590190915A0181309105B1F04CF4892B6D
:1011D00009F04FC061E088E00E94D40160E011C0D6
:1011E00082309105B9F0039709F043C061E088E0CF
:1011F0000E94D40160E013C060E088E00E94D40146
:1012000061E089E00E94D40160E08AE00E94D4019C
:1012100061E00DC060E088E00E94D40161E089E0F7
:101220000E94D40161E08AE00E94D40160E08BE07A
:101230001EC060E088E00E94D40160E089E00E9466
:10124000D40160E08AE00E94D40160E08BE00E945B
:10125000D40160E084E00E94D40160E085E00E9457
:10126000D40160E086E00E94D40160E087E00E9443
:10127000D4018091710190917201892B09F0D5C040
:1012800040916B0150916C0120916D0130916E0184
:1012900080916F01909170014E3A51400CF095C0D1
:1012A00010926A0110926901109268011092670110
:1012B0008217930714F52A3481E038072CF4D09371
:1012C0006A01C093690121C0243591E039072CF4EB
:1012D000D0936A01C09369010BC02E3561E03607D7
:1012E0002CF1223731406CF410936A0100936901AC
:1012F000D0936801C093670119C08A3421E0920736
:101300004CF410936A0100936901109368010093F3
:1013100067010CC0843561E0960734F38E3521E017
:10132000920724F0823791409CF2C9CFD0920301FA
:10133000C0920201D0920101C09200018091690126
:1013400090916A018130910591F42091670130916B
:101350006801229DC001239D900D329D900D1124A6
:101360008059984E909303018093020113C0029715
:1013700089F42091670130916801229DC001239D6D
:10138000900D329D900D11248059984E909301013B
:10139000809300018AE090E0909364018093630160
:1013A0009093660180936501109262011092610131
:1013B0001092600110925F01D0935E01C0935D01B5
:1013C000D0935C01C0935B0130C0D0920301C09206
:1013D0000201D0920101C0920001B0926601A09278
:1013E0006501B0926401A0926301109262011092B3
:1013F00061011092600110925F01281739074CF4C7
:10140000D0935E01C0935D0110935C0100935B017A
:1014100008C010935E0100935D01D0935C01C093FE
:101420005B01F0927201E09271010E94A10127CD4F
:10143000A1E21A2EAA1BBB1BFD010DC0AA1FBB1FD8
:10144000EE1FFF1FA217B307E407F50720F0A21B4A
:10145000B30BE40BF50B661F771F881F991F1A94B7
:1014600069F760957095809590959B01AC01BD01E1
:10147000CF0108950E94450AA59F900DB49F900D3D
:10148000A49F800D911D11240895A29FB001B39FC8
:10149000C001A39F700D811D1124911DB29F700D7D
:1014A000811D1124911D0895052E97FB1EF40094B3
:1014B0000E946B0A57FD07D00E94180A07FC03D050
:1014C0004EF40C946B0A50954095309521953F4F02
:1014D0004F4F5F4F089590958095709561957F4F20
:1014E0008F4F9F4F08950E94450AB7FF0895821BB2
:1014F000930B0895EE0FFF1F0590F491E02D0994D2
:0E15000081E090E0F8940C94850AF894FFCFF7
:10150E0070177017000000003801B4000101DF00F1
:10151E00F3007F01000000005603B40020200056A7
:10152E004D4450565F317C315F564D4450560D0A36
:10153E00004D6963726F204D6F757365002E004606
:08154E0000204C0020520000B7
:107800000C94343C0C94513C0C94513C0C94513CE1
:107810000C94513C0C94513C0C94513C0C94513CB4
:107820000C94513C0C94513C0C94513C0C94513CA4
:107830000C94513C0C94513C0C94513C0C94513C94
:107840000C94513C0C94513C0C94513C0C94513C84
:107850000C94513C0C94513C0C94513C0C94513C74
:107860000C94513C0C94513C11241FBECFEFD8E036
:10787000DEBFCDBF11E0A0E0B1E0ECE9FFE702C060
:1078800005900D92A230B107D9F712E0A2E0B1E065
:1078900001C01D92AD30B107E1F70E942D3D0C945F
:1078A000CC3F0C94003C982F959595959595959582
:1078B000905D8F708A307CF0282F295A8091C0000B
:1078C00085FFFCCF9093C6008091C00085FFFCCF60
:1078D0002093C6000895282F205DF0CF982F809127
:1078E000C00085FFFCCF9093C6000895EF92FF92F1
:1078F0000F931F93EE24FF2487018091C00087FD22
:1079000017C00894E11CF11C011D111D81E4E8164B
:1079100082E4F8068FE0080780E0180770F3E09132
:107920000401F091050109958091C00087FFE9CF1E
:107930008091C6001F910F91FF90EF9008950E94D3
:10794000763C982F8091C00085FFFCCF9093C600B5
:1079500091362CF490330CF09053892F089597555D
:10796000892F08951F930E949F3C182F0E949F3CCF
:107970001295107F810F1F9108951F93182F882350
:1079800021F00E94763C1150E1F71F9108951F935A
:10799000182F0E94763C803249F0809103018F5F5E
:1079A000809303018530C1F01F9108958091C0003C
:1079B00085FFFCCF84E18093C6008091C00085FFE5
:1079C000FCCF1093C6008091C00085FFFCCF80E102
:1079D0008093C6001F910895E0910401F091050184
:1079E00009951F9108950E94763C803241F0809164
:1079F00003018F5F80930301853081F008958091AA
:107A0000C00085FFFCCF84E18093C6008091C00058
:107A100085FFFCCF80E18093C6000895E0910401CA
:107A2000F09105010995089540E951E08823A1F0FE
:107A30002D9A28EE33E0FA013197F1F721503040CA
:107A4000D1F72D9828EE33E0FA013197F1F7215064
:107A50003040D1F7815061F708953F924F925F9285
:107A60006F927F928F929F92AF92BF92CF92DF924E
:107A7000EF92FF920F931F93CF93DF93000080E16B
:107A80008093C4001092C50088E18093C10086E015
:107A90008093C2005098589A259A81E00E94143D24
:107AA00024E1F22E9EE1E92E85E9D82E0FE0C02ECA
:107AB00010E1B12EAA24A394B1E49B2EA6E58A2E50
:107AC000F2E57F2EE0E26E2E79E4572E63E5462E36
:107AD00050E5352E0E94763C8033B1F18133B9F107
:107AE000803409F46FC0813409F476C0823409F41B
:107AF00085C0853409F488C0803531F1823521F1A3
:107B0000813511F1853509F485C0863509F48DC0BC
:107B1000843609F496C0843709F403C1853709F423
:107B200072C1863709F466C0809103018F5F80932C
:107B30000301853079F6E0910401F0910501099582
:107B40000E94763C803351F60E94F33CC3CF0E94E2
:107B5000763C803249F78091C00085FFFCCFF092DF
:107B6000C6008091C00085FFFCCF9092C600809136
:107B7000C00085FFFCCF8092C6008091C00085FFC9
:107B8000FCCF7092C6008091C00085FFFCCF609250
:107B9000C6008091C00085FFFCCF5092C600809146
:107BA000C00085FFFCCF4092C6008091C00085FFD9
:107BB000FCCF3092C6008091C00085FFFCCFB09210
:107BC000C60088CF0E94763C863808F4BDCF0E945C
:107BD000763C0E94F33C7ECF0E94763C803809F4CC
:107BE0009CC0813809F40BC1823809F43CC1883942
:107BF00009F48FC080E00E94C73C6CCF84E10E94F2
:107C0000BD3C0E94F33C66CF85E00E94BD3C0E94D3
:107C1000F33C60CF0E94763C809306010E94763C44
:107C2000809307010E94F33C55CF0E94763C80333D
:107C300009F41DC183E00E94BD3C80E00E94C73C66
:107C400049CF0E94763C809309020E94763C809343
:107C5000080280910C028E7F80930C020E94763C79
:107C6000853409F415C18091080290910902892B8D
:107C700089F000E010E00E94763CF801E85FFE4FDA
:107C800080830F5F1F4F80910802909109020817AF
:107C9000190788F30E94763C803209F045CF809125
:107CA0000C0280FF01C16091060170910701660F0F
:107CB000771F7093070160930601A0910802B091AD
:107CC00009021097C9F0E8E0F1E09B01AD014E0F09
:107CD0005F1FF999FECF32BD21BD819180BDFA9A17
:107CE000F99A2F5F3F4FE417F50799F76A0F7B1F4B
:107CF00070930701609306018091C00085FFFCCF5F
:107D0000F092C6008091C00085FFFCCFB092C60003
:107D1000E1CE83E00E94C73CDDCE82E00E94C73CFA
:107D2000D9CE0E94763C809309020E94763C8093D3
:107D300008028091060190910701880F991F909386
:107D40000701809306010E94763C853409F4A6C0A1
:107D500080910C028E7F80930C020E94763C8032D0
:107D600009F0B8CE8091C00085FFFCCFF092C6002C
:107D7000609108027091090261157105B9F140E046
:107D800050E080910C02A82FA170B82FB27011C0E2
:107D9000BB2309F45CC0E0910601F0910701319624
:107DA000F0930701E09306014F5F5F4F46175707B7
:107DB000E8F4AA2369F3F999FECF209106013091E6
:107DC000070132BD21BDF89A90B58091C00085FFB2
:107DD000FCCF9093C6002F5F3F4F30930701209355
:107DE00006014F5F5F4F4617570718F38091C00099
:107DF00085FDE5CE8091C00085FFF8CFE0CE81E023
:107E00000E94C73C67CE0E94763C803209F08CCE3F
:107E10008091C00085FFFCCFF092C6008091C00029
:107E200085FFFCCFE092C6008091C00085FFFCCFAB
:107E3000D092C6008091C00085FFFCCFC092C600E2
:107E40008091C00085FFFCCFB092C60043CEE09188
:107E50000601F091070194918091C00085FFFCCF4D
:107E60009093C6009CCF80E10E94C73C33CE0E9415
:107E7000763C0E94763C182F0E94763C112309F430
:107E800083C0113009F484C08FE00E94C73C22CE29
:107E900080910C02816080930C02E5CE80910C02EF
:107EA000816080930C0259CF809107018823880F4D
:107EB000880B8A2180930B02809106019091070123
:107EC000880F991F90930701809306018091080203
:107ED00080FF09C080910802909109020196909359
:107EE000090280930802F894F999FECF1127E091D6
:107EF0000601F0910701C8E0D1E08091080290915D
:107F00000902103091F40091570001700130D9F34B
:107F100003E000935700E89500915700017001308D
:107F2000D9F301E100935700E89509901990009169
:107F3000570001700130D9F301E000935700E89534
:107F40001395103498F011270091570001700130FB
:107F5000D9F305E000935700E895009157000170B0
:107F60000130D9F301E100935700E895329602976A
:107F700009F0C7CF103011F00296E5CF112480919F
:107F8000C00085FFB9CEBCCE8EE10E94C73CA2CD19
:0C7F900085E90E94C73C9ECDF894FFCF0D
:027F9C00800063
:040000030000780081
:00000001FF