:100000000C9462000C948A000C948A000C94BE0537
:100010000C948A000C948A000C948A000C948A0038
:100020000C948A000C948A000C948A000C948A0028
:100030000C948A000C948A000C948A000C948A0018
:100040000C9474050C948A000C9442050C941C05C5
:100050000C948A000C948A000C948A000C948A00F8
:100060000C948A000C948A000000000023002600F3
:10007000290000000000240027002A0000000000E2
:10008000250028002B0004040404040404040202D4
:100090000202020203030303030301020408102007
:1000A0004080010204081020010204081020000012
:1000B0000008000201000003040700000000000027
:1000C0000000090611241FBECFEFD8E0DEBFCDBF70
:1000D00022E0ACE4B1E001C01D92A238B207E1F722
:1000E00011E0A0E0B1E0EAE9F6E102C005900D926E
:1000F000AC34B107D9F710E0C2E6D0E004C02197D4
:10010000FE010E94400BC136D107C9F70E94660666
:100110000C944B0B0C940000E5E8F1E0A089B18948
:1001200082E08C93A485B5851C92A685B7858FEC5B
:100130008C93108EA489B58986E08C93A289B389AB
:100140008C9180618C93A289B3898C9188608C9307
:10015000A289B3898C9180688C930288F389E02D01
:1001600080818F7D80830895CF92DF92EF92FF92FE
:100170000F931F93CF93DF936C017A018B01C0E043
:10018000D0E0CE15DF0589F0D8016D918D01D60143
:10019000ED91FC910190F081E02DC6010995892B2C
:1001A00011F47E0102C02196ECCFC701DF91CF91FF
:1001B0001F910F91FF90EF90DF90CF900895FC0179
:1001C000918D828D981761F0828DDF01A80FB11D8E
:1001D0005D968C91928D9F5F9F73928F90E00895B2
:1001E0008FEF9FEF0895FC01918D828D981731F06C
:1001F000828DE80FF11D858D90E008958FEF9FEFC0
:100200000895FC01918D228D892F90E0805C9F4F95
:10021000821B91098F739927089585E891E00E94C8
:10022000010121E0892B09F420E0822F0895FC01CF
:10023000848DDF01A80FB11DA35ABF4F2C91848D6F
:1002400090E001968F739927848FA689B7892C93A4
:10025000A089B1898C9180648C93938D848D98133F
:1002600006C00288F389E02D80818F7D8083089508
:10027000EF92FF920F931F93CF93DF93EC0181E0F6
:10028000888F9B8D8C8D981305C0E889F9898081B2
:1002900085FD24C0F62E0B8D10E00F5F1F4F0F73EE
:1002A0001127E02E8C8DE8120CC00FB607FCFACF98
:1002B000E889F989808185FFF5CFCE010E94170179
:1002C000F1CF8B8DFE01E80FF11DE35AFF4FF08255
:1002D0000B8FEA89FB898081806207C0EE89FF89E4
:1002E0006083E889F98980818064808381E090E07F
:1002F000DF91CF911F910F91FF90EF900895CF93D1
:10030000DF93EC01888D8823C9F0EA89FB8980811D
:1003100085FD05C0A889B9898C9186FD0FC00FB6EF
:1003200007FCF5CF808185FFF2CFA889B9898C9130
:1003300085FFEDCFCE010E941701E7CFDF91CF916E
:10034000089580E090E0892B29F00E940D01811131
:100350000C9400000895833081F028F4813099F0E6
:100360008230A1F008958730A9F08830B9F0843048
:10037000D1F4809180008F7D03C0809180008F77C1
:1003800080938000089584B58F7702C084B58F7DF7
:1003900084BD08958091B0008F7703C08091B00034
:1003A0008F7D8093B00008951F93CF93DF93282F04
:1003B00030E0F901E255FF4F8491F901E656FF4F15
:1003C000D491F901EA57FF4FC491CC23C9F0162FFD
:1003D00081110E94AB01EC2FF0E0EE0FFF1FE458FB
:1003E000FF4FA591B4918FB7F894111105C09C915E
:1003F000ED2FE095E92302C0EC91ED2BEC938FBF3C
:10040000DF91CF911F910895CF93DF9390E0FC018E
:10041000E656FF4F2491FC01EA57FF4F8491882351
:1004200061F190E0880F991FFC01EE58FF4FC591D4
:10043000D491FC01E458FF4FA591B491611109C01A
:100440009FB7F8948881209582238883EC912E238E
:100450000BC0623061F49FB7F8943881822F809589
:1004600083238883EC912E2B2C939FBF06C08FB7DC
:10047000F894E8812E2B28838FBFDF91CF910895C8
:100480008E3008F08E508770806480937C0080915D
:100490007A00806480937A0080917A0086FDFCCF98
:1004A000809178002091790090E0922B08953FB7D9
:1004B000F8948091510190915201A0915301B09113
:1004C000540126B5A89B05C02F3F19F00196A11D28
:1004D000B11D3FBFBA2FA92F982F8827820F911DDA
:1004E000A11DB11DBC01CD0142E0660F771F881F21
:1004F000991F4A95D1F708958F929F92AF92BF921C
:10050000CF92DF92EF92FF926B017C010E94570223
:100510004B015C01C114D104E104F104F1F00E942B
:100520005702DC01CB0188199909AA09BB09883E49
:100530009340A105B10570F321E0C21AD108E1088A
:10054000F10888EE880E83E0981EA11CB11CC1142E
:10055000D104E104F10419F7DDCFFF90EF90DF90B3
:10056000CF90BF90AF909F908F9008952FB7F89441
:1005700060914D0170914E0180914F019091500119
:100580002FBF0895CF93DF93EC0160E08E810E942E
:10059000D40161E08E810E94D40160E08E810E94CE
:1005A000D4018BE891E00197F1F7DF91CF910895A5
:1005B000CF92DF92EF92FF920F931F93CF93DF932F
:1005C0007C016C0187E0C80ED11CC0E0D0E0062F92
:1005D00010E0B8010C2E02C0759567950A94E2F7F9
:1005E0006170F60181916F010E94D4012196C4309F
:1005F000D10579F7C701DF91CF911F910F91FF903E
:10060000EF90DF90CF900C94C202CF92DF92EF92E6
:10061000FF920F931F93CF93DF93EC01F62E642F7D
:100620008C810E94D4018D818F3F19F060E00E947F
:10063000D4018F850F2D10E084FF25C06E0187E067
:10064000C80ED11CE12CF12CB8010E2C02C07595FE
:1006500067950A94E2F76170F60181916F010E943B
:10066000D401FFEFEF1AFF0A88E0E816F10461F702
:10067000CE01DF91CF911F910F91FF90EF90DF900E
:10068000CF900C94C202B80184E0759567958A9565
:10069000E1F7CE010E94D8026F2DCE01DF91CF91FC
:1006A0001F910F91FF90EF90DF90CF900C94D802A4
:1006B00041E00E94050381E090E0089540E00C9441
:1006C0000503EF92FF920F931F93CF93DF93EC01FB
:1006D000623018F08F8588608F876B8B1C8A80E46E
:1006E0008D8B80E18E8B80E58F8B61E08C810E9409
:1006F00004028D818F3F19F061E00E94040261E0E5
:100700008E810E9404027E0187E0E80EF11C00E069
:1007100010E08F8584FD03C084E090E002C088E093
:1007200090E0081719074CF461E0F70181917F010F
:100730000E9404020F5F1F4FECCF8BE39DE00197F7
:10074000F1F760E08C810E94D40160E08E810E940C
:10075000D4018D818F3F19F060E00E94D4016F8534
:1007600064FD1DC063E0CE010E94D8020BE416E4D4
:10077000C8010197F1F763E0CE010E94D802C801D9
:100780000197F1F763E0CE010E94D80283E592E081
:100790000197F1F762E0CE010E94D80216C06062B4
:1007A000CE010E945E038BE496E40197F1F76F851A
:1007B0006062CE010E945E0383E592E00197F1F74B
:1007C0006F856062CE010E945E036F856062CE011C
:1007D0000E945E0384E0888B6CE0CE010E945E0381
:1007E00061E0CE010E945E038BE39FE10197F1F788
:1007F00082E0898B66E0CE01DF91CF911F910F914E
:10080000FF90EF900C945E03643008F063E09091E9
:100810007D02691710F06FEF690FE62FF0E0E659DF
:10082000FD4F9489682F690F60688AE692E00C9406
:100830005E038AEC98E09093640180936301909347
:100840006601809365011092680110926701109211
:100850006A011092690181E090E0909362018093B7
:1008600061019093600180935F0183E090E0909339
:100870006C0180936B01809104019091050182309D
:100880009105D1F01CF4019739F00895833091055A
:1008900049F00497B9F00895809100019091010109
:1008A000019605C0809100019091010101979093FC
:1008B000010180930001089580910201909103014C
:1008C000019605C0809102019091030101979093D8
:1008D00003018093020108950E94460B6115710582
:1008E00079F0FB0101900020E9F73197AF01461B39
:1008F000570BDC01ED91FC910280F381E02D09940E
:1009000080E090E008958F929F92AF92BF92CF9235
:10091000DF92EF92FF920F931F93CF93DF93CDB7A8
:10092000DEB7A1970FB6F894DEBF0FBECDBF6B0147
:100930007C0197FF33C0E0916A02F0916B02019055
:10094000F081E02D6DE28AE692E009958C01222784
:100950003327A9012C193D094E095F0919A2CE01BF
:1009600081967C019AE0892E912CA12CB12CCA0190
:10097000B901A50194010E94DE0A605DF70162934E
:100980007F01211531054105510589F7BF018AE62F
:1009900092E00E946E04800F911F1FC09B01AC016A
:1009A00019A28E010F5D1F4F8AE0C82ED12CE12CB9
:1009B000F12CCA01B901A70196010E94DE0A605D0F
:1009C000F80162938F01211531054105510589F721
:1009D000BF018AE692E00E946E04A1960FB6F894D9
:1009E000DEBF0FBECDBFDF91CF911F910F91FF9062
:1009F000EF90DF90CF90BF90AF909F908F90089531
:100A00000C946E04CF93DF93EC018A3091051CF4B3
:100A100067E271E005C08436910534F468E271E064
:100A20008AE692E00E940005BE01DD0F880B990B5B
:100A3000DF91CF910C9483041F920F920FB60F9207
:100A400011242F933F934F935F936F937F938F93D3
:100A50009F93AF93BF93EF93FF9385E891E00E943C
:100A60001701FF91EF91BF91AF919F918F917F916E
:100A70006F915F914F913F912F910F900FBE0F900B
:100A80001F9018951F920F920FB60F9211242F935B
:100A90008F939F93EF93FF93E0919501F0919601CF
:100AA0008081E0919B01F0919C0182FD12C09081B8
:100AB00080919E018F5F8F7320919F01821751F06B
:100AC000E0919E01F0E0EB57FE4F958F80939E01E1
:100AD00001C08081FF91EF919F918F912F910F9095
:100AE0000FBE0F901F9018951F920F920FB60F9286
:100AF00011242F933F938F939F93AF93BF93809134
:100B00004D0190914E01A0914F01B0915001309153
:100B10004C0123E0230F2D3720F40196A11DB11DB8
:100B200005C026E8230F0296A11DB11D20934C019C
:100B300080934D0190934E01A0934F01B0935001CB
:100B40008091510190915201A0915301B0915401B3
:100B50000196A11DB11D8093510190935201A09364
:100B60005301B0935401BF91AF919F918F913F91E9
:100B70002F910F900FBE0F901F9018951F920F92FC
:100B80000FB60F9211242F933F934F935F936F9360
:100B90007F938F939F93AF93BF93CF93DF93EF9305
:100BA000FF93EAEBF0E08491E6EAF0E0D491E2E929
:100BB000F0E0C491CC23D1F081110E94AB01EC2F65
:100BC000F0E0EE0FFF1FE859FF4FA591B491EC91B3
:100BD000ED2361F08091830190918401892B31F4A0
:100BE00081E090E09093840180938301FF91EF91E5
:100BF000DF91CF91BF91AF919F918F917F916F9135
:100C00005F914F913F912F910F900FBE0F901F90CA
:100C10001895E5E8F1E01382128288EE93E0A0E0F7
:100C2000B0E084839583A683B78383E191E09183C9
:100C3000808385EC90E09587848784EC90E09787AB
:100C4000868780EC90E0918B808B81EC90E0938B99
:100C5000828B82EC90E0958B848B86EC90E0978B76
:100C6000868B118E128E138E148EE2E2F2E01682C3
:100C700017821086118612861386148615861686AC
:100C80001786108A118A128A138A148A158AEAE64C
:100C9000F2E01382128283E291E09183808382E00A
:100CA00084838FEF858383E0868381E1878382E17C
:100CB000808783E181878DE082871386148615867D
:100CC0001686178661E0CF010C946103789484B591
:100CD000826084BD84B5816084BD85B5826085BD38
:100CE00085B5816085BD80916E00816080936E00C6
:100CF00010928100809181008260809381008091B8
:100D00008100816080938100809180008160809368
:100D100080008091B10084608093B1008091B00028
:100D200081608093B00080917A00846080937A0023
:100D300080917A00826080937A0080917A0081604D
:100D400080937A0080917A00806880937A00109274
:100D5000C10010926602109267021092680210920F
:100D6000690210922402109225021092260210921B
:100D700027020E94B6026B017C014B015C0128EB4B
:100D8000820E2BE0921EA11CB11C0E94B6026C15B3
:100D90007D058E059F0528F086169706A806B906DC
:100DA000A0F785E891E090936502809364020E9429
:100DB0008C000E94B60260932402709325028093F7
:100DC0002602909327026AE271E08091640290917A
:100DD00065020E9400050E94B6026B017C014B0176
:100DE0005C018AE0880E911CA11CB11C0E94B60215
:100DF0006C157D058E059F0528F086169706A806BA
:100E0000B906A0F781E0809338020E948C0062E06E
:100E10008AE692E00E94610360E080E00E940404A0
:100E200064EF71E080E090E00E947C0261E084E089
:100E30000E94040261E085E00E94040261E086E015
:100E40000E94040261E087E00E94040261E088E001
:100E50000E94040261E089E00E94040261E08AE0ED
:100E60000E94040261E08BE00E94040260E08CE0DA
:100E70000E940402809168008160809368008091E4
:100E80006B00806180936B000E94570260937D012C
:100E900070937E0180937F01909380010E9457029E
:100EA000DC01CB010596A11DB11D809379019093C2
:100EB0007A01A0937B01B0937C010E94B6026093FB
:100EC000550170935601809357019093580181E02A
:100ED00090E0909362018093610190936001809310
:100EE0005F0180E7E82E87E1F82E9FE5C92ED12C1F
:100EF00022E0A22EB12CC1E0D0E003E010E034ECFF
:100F0000232E39E0332E809083019090840191E06C
:100F100089169104D9F464EF71E080E090E00E94BA
:100F20007C02109284011092830180918101909142
:100F30008201892B29F4909282018092810104C060
:100F400010928201109281010E9419048FE00E9488
:100F5000400290937201809371018EE00E944002E2
:100F6000909374018093730180E10E9440029093FA
:100F700076018093750185E10E94400290935A01A9
:100F8000809359010E94B60240905501509056013D
:100F9000609057017090580124EF420E21E0521EDC
:100FA000611C711C641575058605970508F49DC0C4
:100FB0000E94B602609355017093560180935701C9
:100FC0009093580160E080E00E9404046CE371E0BB
:100FD0008AE692E00E94000560910201709103018F
:100FE000072E000C880B990B0E9483046EE371E0BE
:100FF0008AE692E00E940005609100017091010173
:10100000072E000C880B990B0E94830460E471E0AA
:101010008AE692E00E940005E0916A02F0916B027C
:10102000A0910401B0910501A65FBE4F0190F0812F
:10103000E02D6C918AE692E0099560E08CE00E94D8
:101040000404A0915901B0915A0124EF31E00E94AB
:10105000390B20E034E040E050E00E941A0BA3E09E
:10106000B0E00E94000B24E630E040E050E00E9437
:101070001A0B2B013C01CA01B9010E94830462E4EE
:1010800071E08AE692E00E940005C301B2010E946D
:10109000830461E081E00E94040464E471E08AE674
:1010A00092E00E94000580916301909164010E948A
:1010B000020566E471E08AE692E00E9400058091F4
:1010C0006701909168010E94020569E471E08AE677
:1010D00092E00E9400058091690190916A010E944E
:1010E000020561E08FE00E940404809181019091EB
:1010F0008201019709F03FC20E9457022091080126
:10110000309109012901330F6608770820917D018C
:1011100030917E0140917F0150918001420E531E1B
:10112000641E751E641575058605970508F47EC056
:101130000E94570260937D0170937E0180937F012E
:1011400090938001809167019091680120916501E1
:10115000309166018217930754F080917701909146
:1011600078018E7F90937801809377015FC001961C
:10117000909368018093670120915F013091600135
:1011800080915B0190915C012130310551F48330F5
:10119000910529F410925C0110925B010EC001963A
:1011A00008C0009729F410935C0100935B0105C00F
:1011B000019790935C0180935B0180915B0190911A
:1011C0005C018130910511F144F4892B79F561E0DE
:1011D00084E00E94D40160E01EC08230910541F09D
:1011E000039721F561E084E00E94D40160E005C02E
:1011F00060E084E00E94D40161E085E00E94D401B7
:1012000060E086E00E94D40161E00DC060E084E00F
:101210000E94D40161E085E00E94D40161E086E093
:101220000E94D40160E087E00E94D4010E9457022E
:1012300020910601309107012901330F66087708D4
:101240002091790130917A0140917B0150917C018C
:10125000420E531E641E751E64157505860597059E
:1012600008F47EC00E9457026093790170937A015E
:1012700080937B0190937C018091690190916A0138
:1012800020916301309164018217930754F080919B
:101290007701909178018D7F909378018093770109
:1012A0005FC0019690936A0180936901209161016A
:1012B0003091620180915D0190915E012130310594
:1012C00051F48330910529F410925E0110925D0172
:1012D0000EC0019608C0009729F410935E01009398
:1012E0005D0105C0019790935E0180935D0180913F
:1012F0005D0190915E0181309105A1F044F4892B4C
:1013000079F561E088E00E94D40160E010C082308D
:101310009105B1F0039721F561E088E00E94D401C6
:1013200060E013C060E088E00E94D40161E089E0E1
:101330000E94D40160E08AE00E94D40161E00DC007
:1013400060E088E00E94D40161E089E00E94D4015D
:1013500061E08AE00E94D40160E08BE00E94D40149
:101360008091770190917801892B09F024C18091B7
:101370007101909172018E3A91400CF0A0C01092D0
:10138000700110926F0110926E0110926D01209108
:1013900073013091740180917501909176018217EB
:1013A000930714F5283181E038072CF4D0937001AD
:1013B000C0936F0121C02C3291E039072CF4D093F7
:1013C0007001C0936F010BC0203481E038072CF10D
:1013D000283631406CF4B0927001A0926F01D09326
:1013E0006E01C0936D0119C0883121E092074CF461
:1013F000B0927001A0926F0110936E0100936D0185
:101400000CC08C3221E0920734F3803421E0920743
:1014100024F0883691409CF2C9CFF0920901E09205
:101420000801F0920701E092060180916F0190910E
:1014300070018130910591F420916D0130916E0120
:10144000229DC001239D900D329D900D1124805945
:10145000984E909309018093080113C0029789F474
:1014600020916D0130916E01229DC001239D900D50
:10147000329D900D11248059984E909307018093CE
:10148000060180916B0190916C01892B49F464EF06
:1014900071E080E090E00E947C020E9419048BC001
:1014A0002091690130916A018091670190916801F2
:1014B000820F931F863F91400CF47DC0E8CF68EE09
:1014C00073E080E090E00E947C02F0920901E092DB
:1014D0000801F0920701E092060110926C0110924F
:1014E0006B0140917301509174012091750130910D
:1014F00076018091040190910501D0926601C0921D
:101500006501D0926401C09263011092680110924B
:10151000670110926A0110926901421753078CF417
:10152000D0936201C0936101B0926001A0925F010B
:101530001093780100937701019799F484E090E08B
:1015400010C0B0926201A0926101D0936001C0937B
:101550005F01109378010093770101968530910522
:1015600029F0909305018093040125C0D0930501D3
:10157000C093040120C060E088E00E94D40160E0D4
:1015800089E00E94D40160E08AE00E94D40160E01A
:101590008BE00E94D40160E084E00E94D40160E00E
:1015A00085E00E94D40160E086E00E94D40160E002
:1015B00087E00E94D4010E94A101A5CCA1E21A2ECD
:1015C000AA1BBB1BFD010DC0AA1FBB1FEE1FFF1FE7
:1015D000A217B307E407F50720F0A21BB30BE40B37
:1015E000F50B661F771F881F991F1A9469F760957E
:1015F0007095809590959B01AC01BD01CF01089538
:101600000E940B0BA59F900DB49F900DA49F800D81
:10161000911D11240895A29FB001B39FC001A39F03
:10162000700D811D1124911DB29F700D811D11241B
:10163000911D0895052E97FB1EF400940E94310B16
:1016400057FD07D00E94DE0A07FC03D04EF40C942D
:10165000310B50954095309521953F4F4F4F5F4F3F
:10166000089590958095709561957F4F8F4F9F4F0E
:1016700008950E940B0BB7FF0895821B930B0895EA
:10168000EE0FFF1F0590F491E02D099481E090E0AA
:0A169000F8940C944B0BF894FFCF74
:10169A0005000500010070177017584E4553570092
:1016AA000000003801B4000101DF00F3007F0100EF
:1016BA000000005803B400202000564D4450565FE5
:1016CA00317C315F564D4450560D0A0028002C00DB
:0C16DA0029002E005400204C002052007B
:107800000C94343C0C94513C0C94513C0C94513CE1
:107810000C94513C0C94513C0C94513C0C94513CB4
:107820000C94513C0C94513C0C94513C0C94513CA4
:107830000C94513C0C94513C0C94513C0C94513C94
:107840000C94513C0C94513C0C94513C0C94513C84
:107850000C94513C0C94513C0C94513C0C94513C74
:107860000C94513C0C94513C11241FBECFEFD8E036
:10787000DEBFCDBF11E0A0E0B1E0ECE9FFE702C060
:1078800005900D92A230B107D9F712E0A2E0B1E065
:1078900001C01D92AD30B107E1F70E942D3D0C945F
:1078A000CC3F0C94003C982F959595959595959582
:1078B000905D8F708A307CF0282F295A8091C0000B
:1078C00085FFFCCF9093C6008091C00085FFFCCF60
:1078D0002093C6000895282F205DF0CF982F809127
:1078E000C00085FFFCCF9093C6000895EF92FF92F1
:1078F0000F931F93EE24FF2487018091C00087FD22
:1079000017C00894E11CF11C011D111D81E4E8164B
:1079100082E4F8068FE0080780E0180770F3E09132
:107920000401F091050109958091C00087FFE9CF1E
:107930008091C6001F910F91FF90EF9008950E94D3
:10794000763C982F8091C00085FFFCCF9093C600B5
:1079500091362CF490330CF09053892F089597555D
:10796000892F08951F930E949F3C182F0E949F3CCF
:107970001295107F810F1F9108951F93182F882350
:1079800021F00E94763C1150E1F71F9108951F935A
:10799000182F0E94763C803249F0809103018F5F5E
:1079A000809303018530C1F01F9108958091C0003C
:1079B00085FFFCCF84E18093C6008091C00085FFE5
:1079C000FCCF1093C6008091C00085FFFCCF80E102
:1079D0008093C6001F910895E0910401F091050184
:1079E00009951F9108950E94763C803241F0809164
:1079F00003018F5F80930301853081F008958091AA
:107A0000C00085FFFCCF84E18093C6008091C00058
:107A100085FFFCCF80E18093C6000895E0910401CA
:107A2000F09105010995089540E951E08823A1F0FE
:107A30002D9A28EE33E0FA013197F1F721503040CA
:107A4000D1F72D9828EE33E0FA013197F1F7215064
:107A50003040D1F7815061F708953F924F925F9285
:107A60006F927F928F929F92AF92BF92CF92DF924E
:107A7000EF92FF920F931F93CF93DF93000080E16B
:107A80008093C4001092C50088E18093C10086E015
:107A90008093C2005098589A259A81E00E94143D24
:107AA00024E1F22E9EE1E92E85E9D82E0FE0C02ECA
:107AB00010E1B12EAA24A394B1E49B2EA6E58A2E50
:107AC000F2E57F2EE0E26E2E79E4572E63E5462E36
:107AD00050E5352E0E94763C8033B1F18133B9F107
:107AE000803409F46FC0813409F476C0823409F41B
:107AF00085C0853409F488C0803531F1823521F1A3
:107B0000813511F1853509F485C0863509F48DC0BC
:107B1000843609F496C0843709F403C1853709F423
:107B200072C1863709F466C0809103018F5F80932C
:107B30000301853079F6E0910401F0910501099582
:107B40000E94763C803351F60E94F33CC3CF0E94E2
:107B5000763C803249F78091C00085FFFCCFF092DF
:107B6000C6008091C00085FFFCCF9092C600809136
:107B7000C00085FFFCCF8092C6008091C00085FFC9
:107B8000FCCF7092C6008091C00085FFFCCF609250
:107B9000C6008091C00085FFFCCF5092C600809146
:107BA000C00085FFFCCF4092C6008091C00085FFD9
:107BB000FCCF3092C6008091C00085FFFCCFB09210
:107BC000C60088CF0E94763C863808F4BDCF0E945C
:107BD000763C0E94F33C7ECF0E94763C803809F4CC
:107BE0009CC0813809F40BC1823809F43CC1883942
:107BF00009F48FC080E00E94C73C6CCF84E10E94F2
:107C0000BD3C0E94F33C66CF85E00E94BD3C0E94D3
:107C1000F33C60CF0E94763C809306010E94763C44
:107C2000809307010E94F33C55CF0E94763C80333D
:107C300009F41DC183E00E94BD3C80E00E94C73C66
:107C400049CF0E94763C809309020E94763C809343
:107C5000080280910C028E7F80930C020E94763C79
:107C6000853409F415C18091080290910902892B8D
:107C700089F000E010E00E94763CF801E85FFE4FDA
:107C800080830F5F1F4F80910802909109020817AF
:107C9000190788F30E94763C803209F045CF809125
:107CA0000C0280FF01C16091060170910701660F0F
:107CB000771F7093070160930601A0910802B091AD
:107CC00009021097C9F0E8E0F1E09B01AD014E0F09
:107CD0005F1FF999FECF32BD21BD819180BDFA9A17
:107CE000F99A2F5F3F4FE417F50799F76A0F7B1F4B
:107CF00070930701609306018091C00085FFFCCF5F
:107D0000F092C6008091C00085FFFCCFB092C60003
:107D1000E1CE83E00E94C73CDDCE82E00E94C73CFA
:107D2000D9CE0E94763C809309020E94763C8093D3
:107D300008028091060190910701880F991F909386
:107D40000701809306010E94763C853409F4A6C0A1
:107D500080910C028E7F80930C020E94763C8032D0
:107D600009F0B8CE8091C00085FFFCCFF092C6002C
:107D7000609108027091090261157105B9F140E046
:107D800050E080910C02A82FA170B82FB27011C0E2
:107D9000BB2309F45CC0E0910601F0910701319624
:107DA000F0930701E09306014F5F5F4F46175707B7
:107DB000E8F4AA2369F3F999FECF209106013091E6
:107DC000070132BD21BDF89A90B58091C00085FFB2
:107DD000FCCF9093C6002F5F3F4F30930701209355
:107DE00006014F5F5F4F4617570718F38091C00099
:107DF00085FDE5CE8091C00085FFF8CFE0CE81E023
:107E00000E94C73C67CE0E94763C803209F08CCE3F
:107E10008091C00085FFFCCFF092C6008091C00029
:107E200085FFFCCFE092C6008091C00085FFFCCFAB
:107E3000D092C6008091C00085FFFCCFC092C600E2
:107E40008091C00085FFFCCFB092C60043CEE09188
:107E50000601F091070194918091C00085FFFCCF4D
:107E60009093C6009CCF80E10E94C73C33CE0E9415
:107E7000763C0E94763C182F0E94763C112309F430
:107E800083C0113009F484C08FE00E94C73C22CE29
:107E900080910C02816080930C02E5CE80910C02EF
:107EA000816080930C0259CF809107018823880F4D
:107EB000880B8A2180930B02809106019091070123
:107EC000880F991F90930701809306018091080203
:107ED00080FF09C080910802909109020196909359
:107EE000090280930802F894F999FECF1127E091D6
:107EF0000601F0910701C8E0D1E08091080290915D
:107F00000902103091F40091570001700130D9F34B
:107F100003E000935700E89500915700017001308D
:107F2000D9F301E100935700E89509901990009169
:107F3000570001700130D9F301E000935700E89534
:107F40001395103498F011270091570001700130FB
:107F5000D9F305E000935700E895009157000170B0
:107F60000130D9F301E100935700E895329602976A
:107F700009F0C7CF103011F00296E5CF112480919F
:107F8000C00085FFB9CEBCCE8EE10E94C73CA2CD19
:0C7F900085E90E94C73C9ECDF894FFCF0D
:027F9C00800063
:040000030000780081
:00000001FF