:100000000C9462000C948A000C948A000C94E70310
:100010000C948A000C948A000C948A000C948A0038
:100020000C948A000C948A000C948A000C948A0028
:100030000C948A000C948A000C948A000C948A0018
:100040000C949D030C948A000C946B030C94450350
:100050000C948A000C948A000C948A000C948A00F8
:100060000C948A000C948A000000000023002600F3
:10007000290000000000240027002A0000000000E2
:10008000250028002B0004040404040404040202D4
:100090000202020203030303030301020408102007
:1000A0004080010204081020010204081020000012
:1000B0000008000201000003040700000000000027
:1000C0000000320411241FBECFEFD8E0DEBFCDBF49
:1000D00022E0AAE3B1E001C01D92A036B207E1F729
:1000E00011E0A0E0B1E0EAE3F3E102C005900D9277
:1000F000AA33B107D9F710E0C2E6D0E004C02197D7
:10010000FE010E949009C136D107C9F70E9471040F
:100110000C949B090C940000EBE7F1E0A089B189F5
:1001200082E08C93A485B5851C92A685B7858FEC5B
:100130008C93108EA489B58986E08C93A289B389AB
:100140008C9180618C93A289B3898C9188608C9307
:10015000A289B3898C9180688C930288F389E02D01
:1001600080818F7D80830895CF92DF92EF92FF92FE
:100170000F931F93CF93DF936C017A018B01C0E043
:10018000D0E0CE15DF0589F0D8016D918D01D60143
:10019000ED91FC910190F081E02DC6010995892B2C
:1001A00011F47E0102C02196ECCFC701DF91CF91FF
:1001B0001F910F91FF90EF90DF90CF900895FC0179
:1001C000918D828D981761F0828DDF01A80FB11D8E
:1001D0005D968C91928D9F5F9F73928F90E00895B2
:1001E0008FEF9FEF0895FC01918D828D981731F06C
:1001F000828DE80FF11D858D90E008958FEF9FEFC0
:100200000895FC01918D228D892F90E0805C9F4F95
:10021000821B91098F73992708958BE791E00E94C3
:10022000010121E0892B09F420E0822F0895FC01CF
:10023000848DDF01A80FB11DA35ABF4F2C91848D6F
:1002400090E001968F739927848FA689B7892C93A4
:10025000A089B1898C9180648C93938D848D98133F
:1002600006C00288F389E02D80818F7D8083089508
:10027000EF92FF920F931F93CF93DF93EC0181E0F6
:10028000888F9B8D8C8D981305C0E889F9898081B2
:1002900085FD24C0F62E0B8D10E00F5F1F4F0F73EE
:1002A0001127E02E8C8DE8120CC00FB607FCFACF98
:1002B000E889F989808185FFF5CFCE010E94170179
:1002C000F1CF8B8DFE01E80FF11DE35AFF4FF08255
:1002D0000B8FEA89FB898081806207C0EE89FF89E4
:1002E0006083E889F98980818064808381E090E07F
:1002F000DF91CF911F910F91FF90EF900895CF93D1
:10030000DF93EC01888D8823C9F0EA89FB8980811D
:1003100085FD05C0A889B9898C9186FD0FC00FB6EF
:1003200007FCF5CF808185FFF2CFA889B9898C9130
:1003300085FFEDCFCE010E941701E7CFDF91CF916E
:10034000089580E090E0892B29F00E940D01811131
:100350000C9400000895833081F028F4813099F0E6
:100360008230A1F008958730A9F08830B9F0843048
:10037000D1F4809180008F7D03C0809180008F77C1
:1003800080938000089584B58F7702C084B58F7DF7
:1003900084BD08958091B0008F7703C08091B00034
:1003A0008F7D8093B00008951F93CF93DF93282F04
:1003B00030E0F901E255FF4F8491F901E656FF4F15
:1003C000D491F901EA57FF4FC491CC23C9F0162FFD
:1003D00081110E94AB01EC2FF0E0EE0FFF1FE458FB
:1003E000FF4FA591B4918FB7F894111105C09C915E
:1003F000ED2FE095E92302C0EC91ED2BEC938FBF3C
:10040000DF91CF911F910895CF93DF9390E0FC018E
:10041000E656FF4F2491FC01EA57FF4F8491882351
:1004200061F190E0880F991FFC01EE58FF4FC591D4
:10043000D491FC01E458FF4FA591B491611109C01A
:100440009FB7F8948881209582238883EC912E238E
:100450000BC0623061F49FB7F8943881822F809589
:1004600083238883EC912E2B2C939FBF06C08FB7DC
:10047000F894E8812E2B28838FBFDF91CF910895C8
:100480008E3008F08E508770806480937C0080915D
:100490007A00806480937A0080917A0086FDFCCF98
:1004A000809178002091790090E0922B08953FB7D9
:1004B000F89480913F0190914001A0914101B09149
:1004C000420126B5A89B05C02F3F19F00196A11D3A
:1004D000B11D3FBFBA2FA92F982F8827820F911DDA
:1004E000A11DB11DBC01CD0142E0660F771F881F21
:1004F000991F4A95D1F708958F929F92AF92BF921C
:10050000CF92DF92EF92FF926B017C010E94570223
:100510004B015C01C114D104E104F104F1F00E942B
:100520005702DC01CB0188199909AA09BB09883E49
:100530009340A105B10570F321E0C21AD108E1088A
:10054000F10888EE880E83E0981EA11CB11CC1142E
:10055000D104E104F10419F7DDCFFF90EF90DF90B3
:10056000CF90BF90AF909F908F9008952FB7F89441
:1005700060913B0170913C0180913D0190913E0161
:100580002FBF08958AEC98E0909352018093510117
:100590009093540180935301109258011092570187
:1005A00010925A011092590181E090E090936601F7
:1005B00080936501909364018093630183E090E0F0
:1005C00090935C0180935B0108950E9496096115E8
:1005D000710579F0FB0101900020E9F73197AF0137
:1005E000461B570BDC01ED91FC910280F381E02D5D
:1005F000099480E090E008954F925F926F927F920D
:10060000EF92FF920F931F93CF93DF93CDB7DEB797
:10061000A1970FB6F894DEBF0FBECDBF7C01FA01E3
:10062000CB0119A2223008F42AE08E010F5D1F4F82
:10063000422E512C612C712CBF01A30192010E940A
:100640006E09F901CA01015011096A3014F4605DA4
:1006500001C0695CD8016C93232B242B252B61F7F7
:10066000B801C7010E94E702A1960FB6F894DEBF59
:100670000FBECDBFDF91CF911F910F91FF90EF90F3
:100680007F906F905F904F9008951F920F920FB6DA
:100690000F9211242F933F934F935F936F937F9308
:1006A0008F939F93AF93BF93EF93FF938BE791E06B
:1006B0000E941701FF91EF91BF91AF919F918F9190
:1006C0007F916F915F914F913F912F910F900FBE4E
:1006D0000F901F9018951F920F920FB60F92112432
:1006E0002F938F939F93EF93FF93E0918B01F09162
:1006F0008C018081E0919101F091920182FD12C004
:100700009081809194018F5F8F7320919501821762
:1007100051F0E0919401F0E0E558FE4F958F809301
:10072000940101C08081FF91EF919F918F912F9152
:100730000F900FBE0F901F9018951F920F920FB63B
:100740000F9211242F933F938F939F93AF93BF9357
:1007500080913B0190913C01A0913D01B0913E01FF
:1007600030913A0123E0230F2D3720F40196A11D8B
:10077000B11D05C026E8230F0296A11DB11D2093CF
:100780003A0180933B0190933C01A0933D01B093CB
:100790003E0180913F0190914001A0914101B091B3
:1007A00042010196A11DB11D80933F01909340012C
:1007B000A0934101B0934201BF91AF919F918F915E
:1007C0003F912F910F900FBE0F901F9018951F9281
:1007D0000F920FB60F9211242F933F934F935F9375
:1007E0006F937F938F939F93AF93BF93CF93DF9339
:1007F000EF93FF93EAEBF0E08491E6EAF0E0D49126
:10080000E2E9F0E0C491CC23D1F081110E94AB0168
:10081000EC2FF0E0EE0FFF1FE859FF4FA591B491C8
:10082000EC91ED2361F08091710190917201892B1F
:1008300031F481E090E09093720180937101FF9117
:10084000EF91DF91CF91BF91AF919F918F917F9168
:100850006F915F914F913F912F910F900FBE0F902D
:100860001F901895EBE7F1E01382128288EE93E077
:10087000A0E0B0E084839583A683B78388E091E00D
:100880009183808385EC90E09587848784EC90E069
:100890009787868780EC90E0918B808B81EC90E04D
:1008A000938B828B82EC90E0958B848B86EC90E02E
:1008B000978B868B118E128E138E148EE8E1F2E0E8
:1008C0001682178210861186128613861486158664
:1008D00016861786108A118A128A138A148A158A34
:1008E0000895CF93DF9300D000D000D0CDB7DEB70E
:1008F000789484B5826084BD84B5816084BD85B5FB
:10090000826085BD85B5816085BD80916E00816006
:1009100080936E00109281008091810082608093AC
:1009200081008091810081608093810080918000AE
:100930008160809380008091B10084608093B100D9
:100940008091B00081608093B00080917A008460D3
:1009500080937A0080917A00826080937A008091FF
:100960007A00816080937A0080917A008068809319
:100970007A001092C10010925C0210925D021092F7
:100980005E0210925F0210921A0210921B021092E5
:100990001C0210921D020E94B6026B017C014B01E9
:1009A0005C0128EB820E2BE0921EA11CB11C0E9460
:1009B000B6026C157D058E059F0528F086169706F4
:1009C000A806B906A0F78BE791E090935B028093AD
:1009D0005A020E948C000E94B60260931A02709321
:1009E0001B0280931C0290931D0264E171E08091D0
:1009F0005A0290915B020E94E7020E94B6026B01CC
:100A00007C014B015C013AE0830E911CA11CB11CDE
:100A10000E94B6026C157D058E059F0528F086168E
:100A20009706A806B906A0F781E080932E020E94DF
:100A30008C0061E084E00E94040261E085E00E9495
:100A4000040261E086E00E94040261E087E00E9407
:100A5000040261E088E00E94040261E089E00E94F3
:100A6000040261E08AE00E94040261E08BE00E94DF
:100A7000040260E08CE00E940402809168008160C2
:100A80008093680080916B00806180936B000E946E
:100A9000570260936B0170936C0180936D0190938A
:100AA0006E010E945702DC01CB010596A11DB11D0C
:100AB0008093670190936801A0936901B0936A01E4
:100AC0000E94B602609343017093440180934501F4
:100AD0009093460181E090E09093660180936501D8
:100AE000909364018093630193E0E92EF12C22E05E
:100AF000C22ED12C3FE5832E912CAA24A394B12C95
:100B00000E94B602672B682B692B41F40E94B60243
:100B1000623071058105910508F41EC10E94B6027C
:100B200060937701709378018093790190937A01B3
:100B3000009173011091740120917501309176013B
:100B4000601771078207930740F4609373017093F5
:100B50007401809375019093760100917301109157
:100B6000740120917501309176012B013C01401AEE
:100B7000510A620A730A930182010A3F1105210595
:100B8000310508F4E9C06093730170937401809398
:100B900075019093760124EF31E040E050E020931E
:100BA0002602309327024093280250932902109284
:100BB0002A0210922B0210922C0210922D02809188
:100BC0001E0290911F02A0912002B09121028093F9
:100BD000220290932302A0932402B09325020E9444
:100BE000B60260931E0270931F02809320029093BE
:100BF00021020E94B60260931A0270931B02809336
:100C00001C0290931D020E94B6022B013C0166E279
:100C100071E080915A0290915B020E94E7022AE003
:100C200041E050E060E070E080915A0290915B02F8
:100C30000E94FC026DE271E080915A0290915B0289
:100C40000E94E7022AE0B301A20180915A0290912A
:100C50005B020E94FC026FE271E080915A02909167
:100C60005B020E94E70280911E0290911F02A091F8
:100C70002002B0912102B301A201481B590B6A0B5B
:100C80007B0B2AE080915A0290915B020E94FC0249
:100C90006FE271E080915A0290915B020E94E7023C
:100CA00040911E0250911F0260912002709121021A
:100CB0008091220290912302A0912402B0912502FA
:100CC000481B590B6A0B7B0B2AE080915A029091CA
:100CD0005B020E94FC0261E371E080915A029091F4
:100CE0005B020E94E7020E94B602AB01BC012AE04F
:100CF00080915A0290915B020E94FC0200915A027C
:100D000010915B0263E371E0C8010E94E70263E2B5
:100D100071E0C8010E94E7020E94B6022B013C016B
:100D20009B01AC012B5F3F4F4F4F5F4F29833A83AD
:100D30004B835C830E94B602641575058605970592
:100D400008F0C1C20E94B60260931E0270931F0297
:100D50008093200290932102009171011091720101
:100D600001301105D9F464EF71E080E090E00E9459
:100D70007C0280916F0190917001892B29F0109273
:100D8000700110926F0104C01093700100936F0105
:100D900010927201109271010E94C2028FE00E94B3
:100DA00040021C0190935E0180935D018EE00E94E1
:100DB00040028C019093600180935F0180E10E946A
:100DC00040029E838D83909362018093610185E14F
:100DD0000E94400290934801809347010E9457026D
:100DE00020910201309103012901330F6608770831
:100DF00049825A826B827C8240906B0150906C01D8
:100E000060906D0170906E0129813A814B815C8107
:100E1000420E531E641E751E6415750586059705E2
:100E200008F48FC00E94570260936B0170936C01AD
:100E300080936D0190936E018091570190915801BC
:100E400020915301309154018217930754F08091FF
:100E50005501909156018E7F9093560180935501D4
:100E600070C00196909358018093570120916301BF
:100E7000309164012115310551F460E084E00E9455
:100E8000D40160E085E00E94D40160E053C080910D
:100E9000490190914A012130310551F48330910587
:100EA0002CF010924A011092490112C001960CC018
:100EB0002230310569F4181619062CF0F0924A0117
:100EC000E092490105C0019790934A01809349013E
:100ED0008091490190914A018130910511F144F4CA
:100EE000892B79F561E084E00E94D40160E01EC0A6
:100EF0008230910541F0039721F561E084E00E9482
:100F0000D40160E005C060E084E00E94D40161E0AB
:100F100085E00E94D40160E086E00E94D40161E097
:100F20000DC060E084E00E94D40161E085E00E9491
:100F3000D40161E086E00E94D40160E087E00E9475
:100F4000D4010E9457022091000130910101290132
:100F5000330F6608770849825A826B827C82409000
:100F60006701509068016090690170906A01298161
:100F70003A814B815C81420E531E641E751E6415BE
:100F800075058605970508F48CC00E94570260938A
:100F90006701709368018093690190936A01809161
:100FA000590190915A0120915101309152018217BB
:100FB000930754F080915501909156018D7F909345
:100FC0005601809355016DC0019690935A0180930C
:100FD000590120916501309166012115310551F4C7
:100FE00060E088E00E94D40160E089E00E94D401C2
:100FF00060E050C080914B0190914C01213031054F
:1010000051F4833091052CF010924C0110924B0159
:101010000FC0019609C0181619062CF0F0924C0169
:10102000E0924B0105C0019790934C0180934B01D6
:1010300080914B0190914C0181309105A1F044F4D5
:10104000892B79F561E088E00E94D40160E010C04E
:1010500082309105B1F0039721F561E088E00E94AC
:10106000D40160E013C060E088E00E94D40161E038
:1010700089E00E94D40160E08AE00E94D40161E02E
:101080000DC060E088E00E94D40161E089E00E9428
:10109000D40161E08AE00E94D40160E08BE00E940C
:1010A000D40160906F017090700131E0631671049B
:1010B00089F042E06416710409F4F8C0672809F069
:1010C000FFC01092660110926501109264011092A7
:1010D0006301F6C05EEA251651E035060CF0A1C0AA
:1010E0001092500110924F0110924E0110924D013A
:1010F0004D805E804016510614F5083121E012073C
:101100002CF4B0925001A0924F0124C00C3231E077
:1011100013072CF4B0925001A0924F010BC0003481
:1011200041E0140764F10836114084F4D092500174
:10113000C0924F01B0924E01A0924D0120C04D804F
:101140005E8028E1421621E052064CF4D092500114
:10115000C0924F01F0924E01E0924D0110C03CE26E
:10116000431631E0530614F340E4441641E05406BC
:1011700034F058E6451651E0550664F2C2CF80E7D8
:1011800097E1909303018093020190930101809372
:10119000000180914F019091500181309105A1F49F
:1011A00020914D0130914E01A4ECB9E02A9FC0017D
:1011B0002B9F900D3A9F900D11248059984E90933B
:1011C00003018093020115C0029799F420914D010B
:1011D00030914E01E4ECF9E02E9FC0012F9F900D5D
:1011E0003E9F900D11248059984E90930101809359
:1011F000000180915B0190915C01892B19F40E94A0
:10120000C2025EC02091590130915A01809157016C
:1012100090915801820F931F863F91400CF450C06B
:10122000EECFD0927001C0926F0168EE73E080E063
:1012300090E00E947C0280E7482E87E1582E509271
:10124000030140920201509201014092000110926C
:101250005C0110925B012D813E819092540180923D
:1012600053019092520180925101109258011092B4
:10127000570110925A0110925901021713074CF4AA
:101280007092660160926501D0926401C092630120
:1012900008C0D0926601C0926501709264016092AC
:1012A0006301F0925601E09255010AC08091550108
:1012B00090915601892B21F4B0927001A0926F0198
:1012C0000E94A1011DCC29813A814B815C812617A6
:1012D00037074807590708F02DCD34CDA1E21A2E63
:1012E000AA1BBB1BFD010DC0AA1FBB1FEE1FFF1FCA
:1012F000A217B307E407F50720F0A21BB30BE40B1A
:10130000F50B661F771F881F991F1A9469F7609560
:101310007095809590959B01AC01BD01CF0108951A
:10132000EE0FFF1F0590F491E02D099481E090E00D
:0A133000F8940C949B09F894FFCF89
:10133A0070177017000000003801B4000101DF00C7
:10134A00F3007F01564D4450565F317C315F564D54
:10135A004450560D0A00564D4450455F003A323A01
:0A136A00007C005F564D4450450022
:00000001FF
