:100000000C9462000C948A000C948A000C94EB030C
:100010000C948A000C948A000C948A000C948A0038
:100020000C948A000C948A000C948A000C948A0028
:100030000C948A000C948A000C948A000C948A0018
:100040000C9418030C948A000C9464020C943E02E5
:100050000C948A000C948A000C948A000C948A00F8
:100060000C948A000C948A000000000024002700F1
:100070002A0000000000250028002B0000000000DE
:1000800023002600290004040404040404040202DA
:100090000202020203030303030301020408102007
:1000A0004080010204081020010204081020000012
:1000B0000008000201000003040700000000000027
:1000C0000000050B11241FBECFEFD8E0DEBFCDBF6F
:1000D00022E0AAE8B1E001C01D92A23CB207E1F71C
:1000E00011E0A0E0B1E0E2E2F7E102C005900D927C
:1000F000AA38B107D9F710E0C2E6D0E004C02197D2
:10010000FE010E94840BC136D107C9F70E94A505E4
:100110000C948F0B0C940000FC01918D828D98172C
:1001200061F0828DDF01A80FB11D5D968C91928DDB
:100130009F5F9F73928F90E008958FEF9FEF0895D8
:10014000FC01918D828D981731F0828DE80FF11DA1
:10015000858D90E008958FEF9FEF0895FC01918DBC
:10016000228D892F90E0805C9F4F821B91098F73B5
:100170009927089585EC91E00E94AE0021E0892B3B
:1001800009F420E0822F0895FC01848DDF01A80F7F
:10019000B11DA35ABF4F2C91848D90E001968F73AF
:1001A0009927848FA689B7892C93A089B1898C91CE
:1001B00080648C93938D848D981306C00288F38994
:1001C000E02D80818F7D80830895EF92FF920F93C1
:1001D0001F93CF93DF93EC0181E0888F9B8D8C8DF3
:1001E000981305C0E889F989808185FD24C0F62E21
:1001F0000B8D10E00F5F1F4F0F731127E02E8C8DBA
:10020000E8120CC00FB607FCFACFE889F9898081A3
:1002100085FFF5CFCE010E94C400F1CF8B8DFE018A
:10022000E80FF11DE35AFF4FF0820B8FEA89FB893B
:100230008081806207C0EE89FF896083E889F9893F
:1002400080818064808381E090E0DF91CF911F9175
:100250000F91FF90EF900895CF93DF93EC01888D7D
:100260008823C9F0EA89FB89808185FD05C0A889BA
:10027000B9898C9186FD0FC00FB607FCF5CF808140
:1002800085FFF2CFA889B9898C9185FFEDCFCE018A
:100290000E94C400E7CFDF91CF91089580E090E005
:1002A000892B29F00E94BA0081110C940000089556
:1002B000833081F028F4813099F08230A1F00895E4
:1002C0008730A9F08830B9F08430D1F48091800073
:1002D0008F7D03C0809180008F7780938000089588
:1002E00084B58F7702C084B58F7D84BD08958091D9
:1002F000B0008F7703C08091B0008F7D8093B000F5
:1003000008958E3008F08E508770806480937C0052
:1003100080917A00806480937A0080917A0086FDD3
:10032000FCCF809178002091790090E0922B089585
:100330003FB7F89480918F0190919001A091910125
:10034000B091920126B5A89B05C02F3F19F00196E8
:10035000A11DB11D3FBFBA2FA92F982F8827820F4B
:10036000911DA11DB11DBC01CD0142E0660F771F9B
:10037000881F991F4A95D1F708958F929F92AF9247
:10038000BF92CF92DF92EF92FF926B017C010E94AD
:1003900098014B015C01C114D104E104F104F1F0B6
:1003A0000E949801DC01CB0188199909AA09BB09AF
:1003B000883E9340A105B10570F321E0C21AD1082F
:1003C000E108F10888EE880E83E0981EA11CB11C9C
:1003D000C114D104E104F10419F7DDCFFF90EF90CF
:1003E000DF90CF90BF90AF909F908F9008952FB7E0
:1003F000F89460918B0170918C0180918D019091A6
:100400008E012FBF0895CF92DF92EF92FF926C0181
:100410008AE0C816D1041CF46CE171E006C084E6E1
:10042000C816D10434F46DE171E08AEA92E00E94CA
:10043000A3050D2C000CEE08FF08F7FE14C0E09198
:10044000AA02F091AB020190F081E02D6DE28AEA00
:1004500092E0099544275527BA014C195D096E09A8
:100460007F092AE003C02AE0B701A6018AEA92E0E8
:10047000FF90EF90DF90CF900C9446051F920F9263
:100480000FB60F9211242F933F934F935F936F9367
:100490007F938F939F93AF93BF93EF93FF9385ECDD
:1004A00091E00E94C400FF91EF91BF91AF919F91A5
:1004B0008F917F916F915F914F913F912F910F900D
:1004C0000FBE0F901F9018951F920F920FB60F92AC
:1004D00011242F938F939F93EF93FF93E091D50176
:1004E000F091D6018081E091DB01F091DC0182FD89
:1004F00012C090818091DE018F5F8F732091DF01A8
:10050000821751F0E091DE01F0E0EB53FE4F958F42
:100510008093DE0101C08081FF91EF919F918F91C7
:100520002F910F900FBE0F901F9018951F93CF9390
:10053000DF93282F30E0F901E255FF4F8491F90154
:10054000E656FF4FD491F901EA57FF4FC491CC23EF
:10055000C9F0162F81110E945801EC2FF0E0EE0F28
:10056000FF1FEE58FF4FA591B4918FB7F89411116A
:1005700005C09C91ED2FE095E92302C0EC91ED2B95
:10058000EC938FBFDF91CF911F910895CF93DF93AD
:10059000EC0160E08E810E94960261E08E810E94F3
:1005A000960260E08E810E9496028BE891E00197AE
:1005B000F1F7DF91CF910895CF93DF9390E0FC01A5
:1005C000E656FF4F2491FC01EA57FF4F84918823A0
:1005D00061F190E0880F991FFC01E859FF4FC59128
:1005E000D491FC01EE58FF4FA591B491611109C05F
:1005F0009FB7F8948881209582238883EC912E23DD
:100600000BC0623061F49FB7F8943881822F8095D7
:1006100083238883EC912E2B2C939FBF06C08FB72A
:10062000F894E8812E2B28838FBFDF91CF91089516
:100630001F920F920FB60F9211242F933F938F9317
:100640009F93AF93BF9380918B0190918C01A09168
:100650008D01B0918E0130918A0123E0230F2D3757
:1006600020F40196A11DB11D05C026E8230F0296B6
:10067000A11DB11D20938A0180938B0190938C0161
:10068000A0938D01B0938E0180918F019091900184
:10069000A0919101B09192010196A11DB11D80938D
:1006A0008F0190939001A0939101B0939201BF911B
:1006B000AF919F918F913F912F910F900FBE0F900F
:1006C0001F901895CF92DF92EF92FF920F931F9396
:1006D000CF93DF937C016C0187E0C80ED11CC0E092
:1006E000D0E0062F10E0B8010C2E02C0759567957A
:1006F0000A94E2F76170F60181916F010E949602FF
:100700002196C430D10579F7C701DF91CF911F91B0
:100710000F91FF90EF90DF90CF900C94C602CF9294
:10072000DF92EF92FF920F931F93CF93DF93EC0131
:10073000F62E642F8C810E9496028D818F3F19F0D6
:1007400060E00E9496028F850F2D10E084FF25C087
:100750006E0187E0C80ED11CE12CF12CB8010E2CE3
:1007600002C0759567950A94E2F76170F601819170
:100770006F010E949602FFEFEF1AFF0A88E0E81669
:10078000F10461F7CE01DF91CF911F910F91FF909E
:10079000EF90DF90CF900C94C602B80184E075957D
:1007A00067958A95E1F7CE010E9462036F2DCE0115
:1007B000DF91CF911F910F91FF90EF90DF90CF903D
:1007C0000C94620341E00E948F0381E090E0089561
:1007D00040E00C948F031F920F920FB60F921124DA
:1007E0002F933F934F935F936F937F938F939F9339
:1007F000AF93BF93EF93FF936CEB72E080E090E0D8
:100800000E94BD018091B7019091B801019729F430
:100810001092B8011092B70106C081E090E0909369
:10082000B8018093B701FF91EF91BF91AF919F9174
:100830008F917F916F915F914F913F912F910F9089
:100840000FBE0F901F901895CF92DF92EF92FF92FC
:100850000F931F93CF93DF936C017A018B01C0E05C
:10086000D0E0CE15DF0589F0D8016D918D01D6015C
:10087000ED91FC910190F081E02DC6010995892B45
:1008800011F47E0102C02196ECCFC701DF91CF9118
:100890001F910F91FF90EF90DF90CF9008950E94ED
:1008A0008A0B6115710579F0FB0101900020E9F7D1
:1008B0003197AF01461B570BDC01ED91FC91028093
:1008C000F381E02D099480E090E00895EF92FF928B
:1008D0000F931F93CF93DF93EC01623018F08F8555
:1008E00088608F876B8B1C8A80E48D8B80E18E8B78
:1008F00080E58F8B61E08C810E94DC028D818F3FCF
:1009000019F061E00E94DC0261E08E810E94DC024D
:100910007E0187E0E80EF11C00E010E08F8584FD89
:1009200003C084E090E002C088E090E00817190757
:100930004CF461E0F70181917F010E94DC020F5FBE
:100940001F4FECCF8BE39DE00197F1F760E08C81C6
:100950000E94960260E08E810E9496028D818F3FF8
:1009600019F060E00E9496026F8564FD1DC063E08F
:10097000CE010E9462030BE416E4C8010197F1F76F
:1009800063E0CE010E946203C8010197F1F763E0C2
:10099000CE010E94620383E592E00197F1F762E0E5
:1009A000CE010E94620316C06062CE010E94E8037D
:1009B0008BE496E40197F1F76F856062CE010E94A7
:1009C000E80383E592E00197F1F76F856062CE015D
:1009D0000E94E8036F856062CE010E94E80384E014
:1009E000888B6CE0CE010E94E80361E0CE010E949A
:1009F000E8038BE39FE10197F1F782E0898B66E0E2
:100A0000CE01DF91CF911F910F91FF90EF900C9449
:100A1000E803E5ECF1E0A089B18982E08C93A4853C
:100A2000B5851C92A685B7858FEC8C93108EA48912
:100A3000B58986E08C93A289B3898C9180618C936F
:100A4000A289B3898C9188608C93A289B3898C9197
:100A500080688C930288F389E02D80818F7D80836C
:100A60000895643008F063E09091BD02691710F0BA
:100A70006FEF690FE62FF0E0E655FD4F9489682F80
:100A8000690F60688AEA92E00C94E8034F925F92E3
:100A90006F927F92EF92FF920F931F93CF93DF930A
:100AA000CDB7DEB7A1970FB6F894DEBF0FBECDBFAE
:100AB0007C01FA01CB0119A2223008F42AE08E0150
:100AC0000F5D1F4F422E512C612C712CBF01A301D1
:100AD00092010E94620BF901CA01015011096A30AA
:100AE00014F4605D01C0695CD8016C93232B242B46
:100AF000252B61F7B801C7010E945104A1960FB6DA
:100B0000F894DEBF0FBECDBFDF91CF911F910F9143
:100B1000FF90EF907F906F905F904F9008950F93AC
:100B20001F93CF93DF93EC010E9451048C016EE27E
:100B300071E0CE010E945104800F911FDF91CF918F
:100B40001F910F9108950C945104789484B582609C
:100B500084BD84B5816084BD85B5826085BD85B561
:100B6000816085BD80916E00816080936E001092DF
:100B7000810080918100826080938100809181005A
:100B800081608093810080918000816080938000EB
:100B90008091B10084608093B1008091B000816049
:100BA0008093B00080917A00846080937A00809175
:100BB0007A00826080937A0080917A0081608093CD
:100BC0007A0080917A00806880937A001092C10048
:100BD0001092A6021092A7021092A8021092A902E7
:100BE00010926402109265021092660210926702DF
:100BF0000E94F7016B017C014B015C0128EB820E26
:100C00002BE0921EA11CB11C0E94F7016C157D0502
:100C10008E059F0528F086169706A806B906A0F748
:100C200085EC91E09093A5028093A4020E940905AF
:100C30000E94F701609364027093650280936602DC
:100C4000909367026FE171E08091A4029091A502F8
:100C50000E94A3050E94F7016B017C014B015C011E
:100C60003AE0830E911CA11CB11C0E94F7016C1587
:100C70007D058E059F0528F086169706A806B906FD
:100C8000A0F781E0809378020E94090562E08AEA79
:100C900092E00E94660461E371E08AEA92E00E94B9
:100CA000A30561E084E00E94DC0261E085E00E942F
:100CB000DC0261E086E00E94DC0261E087E00E94E5
:100CC000DC0261E088E00E94DC0261E089E00E94D1
:100CD000DC0261E08AE00E94DC0261E08BE00E94BD
:100CE000DC0261E08DE00E94DC0260E08CE00E94AA
:100CF000DC028091680081608093680080916B00C5
:100D0000806180936B00CAEBD0E006EA10E042E914
:100D1000E42E40E0F42EFE018491F801C490F70126
:100D2000D490DD20C1F381110E9458018D2D90E0F7
:100D3000880F991F84589F4FFC01A591B4918C9105
:100D4000C82249F364EF71E080E090E00E94BD01A9
:100D50000E9498016093B3017093B4018093B50130
:100D60009093B6010E949801DC01CB010A96A11D67
:100D7000B11D8093AF019093B001A093B101B093E6
:100D8000B2010E94F7016093B9017093BA01809398
:100D9000BB019093BC0181E090E090939A01809315
:100DA0009901909398018093970180E7E82E87E15D
:100DB000F82E95E5C92ED12C02E010E0C1E0D0E07C
:100DC00028EB222E2BE0322E0E94F701672B682B96
:100DD000692B41F40E94F70162307105810591058C
:100DE00008F416C10E94F7016093C1017093C2011B
:100DF0008093C3019093C4018090BD019090BE0187
:100E0000A090BF01B090C001681579058A059B05C7
:100E100040F46093BD017093BE018093BF01909335
:100E2000C0018090BD019090BE01A090BF01B09024
:100E3000C0019B01AC01281939094A095B09490124
:100E40005A013AEF83169104A104B10408F4E0C0FA
:100E50006093BD017093BE018093BF019093C00168
:100E600084EF91E0A0E0B0E0809370029093710273
:100E7000A0937202B09373021092740210927502E2
:100E80001092760210927702809168029091690226
:100E9000A0916A02B0916B0280936C0290936D02F4
:100EA000A0936E02B0936F020E94F70160936802F4
:100EB0007093690280936A0290936B020E94F7011B
:100EC0006093640270936502809366029093670258
:100ED0000E94F7014B015C016DE371E08091A40277
:100EE0009091A5020E94A3052AE041E050E060E055
:100EF00070E08091A4029091A5020E94460564E4EE
:100F000071E08091A4029091A5020E94A3052AE0BD
:100F1000B501A4018091A4029091A5020E9446050A
:100F200066E471E08091A4029091A5020E94A3055D
:100F30008091680290916902A0916A02B0916B025F
:100F4000B501A401481B590B6A0B7B0B2AE0809169
:100F5000A4029091A5020E94460566E471E080918A
:100F6000A4029091A5020E94A305409168025091AD
:100F7000690260916A0270916B0280916C0290919B
:100F80006D02A0916E02B0916F02481B590B6A0B63
:100F90007B0B2AE08091A4029091A5020E94460555
:100FA00068E471E08091A4029091A5020E94A305DB
:100FB0000E94F701AB01BC012AE08091A40290914C
:100FC000A5020E9446056AE471E08091A402909116
:100FD000A5020E948F050E94F7014B015C012B01C5
:100FE0003C0195E0490E511C611C711C0E94F701E7
:100FF000681579058A059B0508F000C30E94F70172
:10100000609368027093690280936A0290936B0206
:101010008FE00E9481019093A8018093A7018EE048
:101020000E9481019093AA018093A90180E10E940E
:1010300081019093AC018093AB010E94F7018090F5
:10104000B9019090BA01A090BB01B090BC01A4EF8F
:101050008A0EA1E09A1EA11CB11C681579058A05AB
:101060009B0590F10E94F7016093B9017093BA015A
:101070008093BB019093BC0161E080E00E94310548
:1010800061E571E08AEA92E00E94A3058091A701E0
:101090009091A8010E94030263E571E08AEA92E060
:1010A0000E94A3058091A9019091AA010E940302C8
:1010B00066E571E08AEA92E00E94A3058091AB01A7
:1010C0009091AC010E9403028091B7019091B80108
:1010D000019709F02FC10E9498014091020150919F
:1010E00003012A01550F660877088090B30190909C
:1010F000B401A090B501B090B601840C951CA61C5B
:10110000B71C681579058A059B0508F47BC00E9409
:1011100098016093B3017093B4018093B5019093EB
:10112000B60180919D0190919E012091A101309185
:10113000A201821793072CF01092AE011092AD011C
:1011400061C0019690939E0180939D01209197012B
:101150003091980180919301909194012130310553
:1011600051F48330910529F4109294011092930167
:1011700010C001960AC0009739F4E3E0F0E0F09364
:101180009401E093930105C001979093940180939B
:10119000930180919301909194018130910511F117
:1011A00044F4892B79F561E084E00E94960260E0C6
:1011B0001EC08230910541F0039721F561E084E083
:1011C0000E94960260E005C060E084E00E94960202
:1011D00061E085E00E94960260E086E00E9496024F
:1011E00061E00DC060E084E00E94960261E085E06D
:1011F0000E94960261E086E00E94960260E087E02D
:101200000E9496020E9498014091000150910101B4
:101210002A01550F660877088090AF019090B001C1
:10122000A090B101B090B201840C951CA61CB71C13
:10123000681579058A059B0508F49CC00E949801F1
:101240006093AF017093B0018093B1019093B201AC
:1012500080919B0190919C0120919F013091A00170
:10126000821793072CF01092AE011092AD0182C04C
:10127000019690939C0180939B012091990130915C
:101280009A0180919501909196012130310551F498
:101290008330910529F4109296011092950110C0A7
:1012A00001960AC0009739F423E030E030939601AC
:1012B0002093950105C00197909396018093950125
:1012C000809195019091960181309105B1F04CF497
:1012D000892B09F04FC061E088E00E94960260E02F
:1012E00011C082309105B9F0039709F043C061E065
:1012F00088E00E94960260E013C060E088E00E94EF
:10130000960261E089E00E94960260E08AE00E9415
:10131000960261E00DC060E088E00E94960261E004
:1013200089E00E94960261E08AE00E94960260E0F5
:101330008BE01EC060E088E00E94960260E089E0D9
:101340000E94960260E08AE00E94960260E08BE0D4
:101350000E94960260E084E00E94960260E085E0D0
:101360000E94960260E086E00E94960260E087E0BC
:101370000E9496028091AD019091AE01892B09F0F7
:101380003AC18091A7019091A8018E3A91400CF04A
:10139000BAC01092A6011092A5011092A401109259
:1013A000A3012091A9013091AA018091AB019091F4
:1013B000AC018217930714F52A3441E034072CF46A
:1013C000D093A601C093A50121C0243551E0350773
:1013D0002CF4D093A601C093A5010BC02E3581E05B
:1013E00038072CF1223731406CF41093A60100939A
:1013F000A501D093A401C093A30119C08A34A1E030
:101400009A074CF41093A6010093A5011093A40130
:101410000093A3010CC08435B1E09B0734F38E35F3
:10142000E1E09E0724F0823791409CF2C9CF61E051
:101430008FE00E943105F0920301E0920201F092E8
:101440000101E09200018091A5019091A6018130F7
:101450009105C1F464E571E08AEA92E00E94A30577
:101460002091A3013091A401229DC001239D900DE4
:10147000329D900D11248059984E909303018093D2
:10148000020120C00297C1F467E571E08AEA92E0A8
:101490000E94A3052091A3013091A401229DC001C7
:1014A000239D900D329D900D11248059984E90935C
:1014B00001018093000106C069E571E08AEA92E0CB
:1014C0000E94A3052AE030E03093A00120939F0101
:1014D0003093A2012093A10110929E0110929D01D0
:1014E00010929C0110929B01D0939A01C093990194
:1014F000D0939801C093970160E08CE00E94310581
:101500006BE571E074C0F0920301E0920201F09289
:101510000101E092000160E671E085EC91E00E943B
:101520008F052091A9013091AA018091AB01909182
:10153000AC012817390774F563E771E085EC91E099
:101540000E948F05D092A201C092A101D092A00169
:10155000C0929F0110929E0110929D0110929C01D9
:1015600010929B01D0939A01C09399011093980116
:10157000009397018091AD019091AE0183609093AB
:10158000AE018093AD0160E08CE00E94310568E718
:1015900071E02DC06DE771E085EC91E00E948F0550
:1015A000D092A201C092A101D092A001C0929F014D
:1015B00010929E0110929D0110929C0110929B012D
:1015C00010939A0100939901D0939801C0939701C9
:1015D0008091AD019091AE0183609093AE018093B4
:1015E000AD0160E08CE00E94310563E871E08AEAB9
:1015F00092E00E94A3050E944E01E6CB46165706D4
:101600006806790608F0F2CCF9CCE5ECF1E013823B
:10161000128288EE93E0A0E0B0E084839583A683F5
:10162000B78388E091E09183808385EC90E0958793
:10163000848784EC90E09787868780EC90E0918B9C
:10164000808B81EC90E0938B828B82EC90E0958B89
:10165000848B86EC90E0978B868B118E128E138E86
:10166000148EE2E6F2E01682178210861186128648
:1016700013861486158616861786108A118A128A92
:10168000138A148A158AEAEAF2E01382128288E148
:1016900091E09183808382E084838FEF858383E070
:1016A000868381E187838DE0808783E1818782E182
:1016B00082871386148615861686178661E0CF0109
:1016C0000C946604A1E21A2EAA1BBB1BFD010DC0DF
:1016D000AA1FBB1FEE1FFF1FA217B307E407F507E2
:1016E00020F0A21BB30BE40BF50B661F771F881FBE
:1016F000991F1A9469F760957095809590959B0154
:10170000AC01BD01CF010895EE0FFF1F0590F491CC
:10171000E02D099481E090E0F8940C948F0BF894FC
:02172000FFCFF9
:101722007017701700000000E5002404AE008C0062
:10173200A0002C0100000000E20324042020005637
:101742004D4450565F317C315F564D4450560D0A20
:10175200004D6963726F204D6F75736500564D447D
:1017620050455F003A323A007C005F564D44504586
:10177200004600204C002052004E00464F525700B7
:1017820046726F6E7457616C6C2064657465637425
:101792006564004C656674004C4546540072696786
:0A17A20068740052494748540000E3
:107800000C94343C0C94513C0C94513C0C94513CE1
:107810000C94513C0C94513C0C94513C0C94513CB4
:107820000C94513C0C94513C0C94513C0C94513CA4
:107830000C94513C0C94513C0C94513C0C94513C94
:107840000C94513C0C94513C0C94513C0C94513C84
:107850000C94513C0C94513C0C94513C0C94513C74
:107860000C94513C0C94513C11241FBECFEFD8E036
:10787000DEBFCDBF11E0A0E0B1E0ECE9FFE702C060
:1078800005900D92A230B107D9F712E0A2E0B1E065
:1078900001C01D92AD30B107E1F70E942D3D0C945F
:1078A000CC3F0C94003C982F959595959595959582
:1078B000905D8F708A307CF0282F295A8091C0000B
:1078C00085FFFCCF9093C6008091C00085FFFCCF60
:1078D0002093C6000895282F205DF0CF982F809127
:1078E000C00085FFFCCF9093C6000895EF92FF92F1
:1078F0000F931F93EE24FF2487018091C00087FD22
:1079000017C00894E11CF11C011D111D81E4E8164B
:1079100082E4F8068FE0080780E0180770F3E09132
:107920000401F091050109958091C00087FFE9CF1E
:107930008091C6001F910F91FF90EF9008950E94D3
:10794000763C982F8091C00085FFFCCF9093C600B5
:1079500091362CF490330CF09053892F089597555D
:10796000892F08951F930E949F3C182F0E949F3CCF
:107970001295107F810F1F9108951F93182F882350
:1079800021F00E94763C1150E1F71F9108951F935A
:10799000182F0E94763C803249F0809103018F5F5E
:1079A000809303018530C1F01F9108958091C0003C
:1079B00085FFFCCF84E18093C6008091C00085FFE5
:1079C000FCCF1093C6008091C00085FFFCCF80E102
:1079D0008093C6001F910895E0910401F091050184
:1079E00009951F9108950E94763C803241F0809164
:1079F00003018F5F80930301853081F008958091AA
:107A0000C00085FFFCCF84E18093C6008091C00058
:107A100085FFFCCF80E18093C6000895E0910401CA
:107A2000F09105010995089540E951E08823A1F0FE
:107A30002D9A28EE33E0FA013197F1F721503040CA
:107A4000D1F72D9828EE33E0FA013197F1F7215064
:107A50003040D1F7815061F708953F924F925F9285
:107A60006F927F928F929F92AF92BF92CF92DF924E
:107A7000EF92FF920F931F93CF93DF93000080E16B
:107A80008093C4001092C50088E18093C10086E015
:107A90008093C2005098589A259A81E00E94143D24
:107AA00024E1F22E9EE1E92E85E9D82E0FE0C02ECA
:107AB00010E1B12EAA24A394B1E49B2EA6E58A2E50
:107AC000F2E57F2EE0E26E2E79E4572E63E5462E36
:107AD00050E5352E0E94763C8033B1F18133B9F107
:107AE000803409F46FC0813409F476C0823409F41B
:107AF00085C0853409F488C0803531F1823521F1A3
:107B0000813511F1853509F485C0863509F48DC0BC
:107B1000843609F496C0843709F403C1853709F423
:107B200072C1863709F466C0809103018F5F80932C
:107B30000301853079F6E0910401F0910501099582
:107B40000E94763C803351F60E94F33CC3CF0E94E2
:107B5000763C803249F78091C00085FFFCCFF092DF
:107B6000C6008091C00085FFFCCF9092C600809136
:107B7000C00085FFFCCF8092C6008091C00085FFC9
:107B8000FCCF7092C6008091C00085FFFCCF609250
:107B9000C6008091C00085FFFCCF5092C600809146
:107BA000C00085FFFCCF4092C6008091C00085FFD9
:107BB000FCCF3092C6008091C00085FFFCCFB09210
:107BC000C60088CF0E94763C863808F4BDCF0E945C
:107BD000763C0E94F33C7ECF0E94763C803809F4CC
:107BE0009CC0813809F40BC1823809F43CC1883942
:107BF00009F48FC080E00E94C73C6CCF84E10E94F2
:107C0000BD3C0E94F33C66CF85E00E94BD3C0E94D3
:107C1000F33C60CF0E94763C809306010E94763C44
:107C2000809307010E94F33C55CF0E94763C80333D
:107C300009F41DC183E00E94BD3C80E00E94C73C66
:107C400049CF0E94763C809309020E94763C809343
:107C5000080280910C028E7F80930C020E94763C79
:107C6000853409F415C18091080290910902892B8D
:107C700089F000E010E00E94763CF801E85FFE4FDA
:107C800080830F5F1F4F80910802909109020817AF
:107C9000190788F30E94763C803209F045CF809125
:107CA0000C0280FF01C16091060170910701660F0F
:107CB000771F7093070160930601A0910802B091AD
:107CC00009021097C9F0E8E0F1E09B01AD014E0F09
:107CD0005F1FF999FECF32BD21BD819180BDFA9A17
:107CE000F99A2F5F3F4FE417F50799F76A0F7B1F4B
:107CF00070930701609306018091C00085FFFCCF5F
:107D0000F092C6008091C00085FFFCCFB092C60003
:107D1000E1CE83E00E94C73CDDCE82E00E94C73CFA
:107D2000D9CE0E94763C809309020E94763C8093D3
:107D300008028091060190910701880F991F909386
:107D40000701809306010E94763C853409F4A6C0A1
:107D500080910C028E7F80930C020E94763C8032D0
:107D600009F0B8CE8091C00085FFFCCFF092C6002C
:107D7000609108027091090261157105B9F140E046
:107D800050E080910C02A82FA170B82FB27011C0E2
:107D9000BB2309F45CC0E0910601F0910701319624
:107DA000F0930701E09306014F5F5F4F46175707B7
:107DB000E8F4AA2369F3F999FECF209106013091E6
:107DC000070132BD21BDF89A90B58091C00085FFB2
:107DD000FCCF9093C6002F5F3F4F30930701209355
:107DE00006014F5F5F4F4617570718F38091C00099
:107DF00085FDE5CE8091C00085FFF8CFE0CE81E023
:107E00000E94C73C67CE0E94763C803209F08CCE3F
:107E10008091C00085FFFCCFF092C6008091C00029
:107E200085FFFCCFE092C6008091C00085FFFCCFAB
:107E3000D092C6008091C00085FFFCCFC092C600E2
:107E40008091C00085FFFCCFB092C60043CEE09188
:107E50000601F091070194918091C00085FFFCCF4D
:107E60009093C6009CCF80E10E94C73C33CE0E9415
:107E7000763C0E94763C182F0E94763C112309F430
:107E800083C0113009F484C08FE00E94C73C22CE29
:107E900080910C02816080930C02E5CE80910C02EF
:107EA000816080930C0259CF809107018823880F4D
:107EB000880B8A2180930B02809106019091070123
:107EC000880F991F90930701809306018091080203
:107ED00080FF09C080910802909109020196909359
:107EE000090280930802F894F999FECF1127E091D6
:107EF0000601F0910701C8E0D1E08091080290915D
:107F00000902103091F40091570001700130D9F34B
:107F100003E000935700E89500915700017001308D
:107F2000D9F301E100935700E89509901990009169
:107F3000570001700130D9F301E000935700E89534
:107F40001395103498F011270091570001700130FB
:107F5000D9F305E000935700E895009157000170B0
:107F60000130D9F301E100935700E895329602976A
:107F700009F0C7CF103011F00296E5CF112480919F
:107F8000C00085FFB9CEBCCE8EE10E94C73CA2CD19
:0C7F900085E90E94C73C9ECDF894FFCF0D
:027F9C00800063
:040000030000780081
:00000001FF